:10000000008000207D010000A9010000A90100007E
:10001000A9010000A9010000A9010000A901000038
:10002000A9010000A9010000A9010000A901000028
:10003000A9010000A9010000A9010000A901000018
:10004000A9010000A9010000A9010000A901000008
:10005000A9010000A9010000A9010000A9010000F8
:10006000A9010000A9010000A9010000A9010000E8
:10007000A9010000A901000065090000A901000014
:10008000A9010000A9010000A9010000A9010000C8
:10009000A9010000A9010000A9010000A9010000B8
:1000A000A9010000A9010000A9010000A9010000A8
:1000B000A9010000A9010000A9010000A901000098
:1000C000A9010000A901000010B5054C237833B93F
:1000D000044B13B10448AFF300800123237010BD1B
:1000E0007C00002000000000EC0A000008B5034B73
:1000F0001BB103490348AFF3008008BD00000000B6
:1001000080000020EC0A0000154B002B08BF134BA9
:100110009D46A3F5803A00218B460F461348144AAA
:10012000121A00F0C5FC0F4B002B00D098470E4B65
:10013000002B00D098470020002104000D000D483E
:10014000002802D00C48AFF3008000F08DFC2000A6
:10015000290000F027FC00F073FC00BF000008003D
:100160000080002000000000000000007C00002053
:100170009C020020000000000000000006488047AC
:100180000649074A074B9A42BEBF51F8040B42F892
:10019000040BF8E7FFF7B8FF2D020000F80A000093
:1001A000000000207C000020FEE700BF0F4BD3F8CA
:1001B000943003F00703032B14D0042B0FD0022B31
:1001C0000AD00B4B1868094BD3F80031C3F3042352
:1001D0000133B0FBF3F07047064B1868F3E7064BAA
:1001E0001868F0E74FF40040EDE700BF00400E4014
:1001F00008000020040000200C00002008B5FFF7D4
:10020000D5FF054B054AD3F80831C3F30823013362
:10021000B0FBF3F0106008BD00400E40000000206D
:10022000014B1868704700BF04000020034AD2F851
:10023000883043F47003C2F88830704700ED00E066
:100240004FF40040704700BF4FF47A70704700BF12
:10025000014B1868704700BF0C00002070B4294D96
:10026000294C2A4B466B002A16BF2B46002210222F
:10027000A04201D070BC7047022903EA06031FD0D8
:1002800009D9062932D081291AD003292AD01E4A39
:10029000536370BC704739B30129F8D11C48016819
:1002A00004680068090C000C00F0F00001F4FE4145
:1002B0000143C4F30340014301FA02F21343E6E7AA
:1002C000144908680C68096800F4FE4004F00F0443
:1002D000204301F0F001014301FA02F213430A4AFC
:1002E0005363D6E70B48DAE70949EAE70A480168A9
:1002F000006801F00F0100F0F000014301FA02F282
:100300001343C4E7FFFF0080002000400080FFFF90
:100310001082E00F1482E00F1882E00F70B5CB78E6
:100320000E460546002B32D002681B02120603F46B
:10033000FE4425D50A23AB60B278307873783179E2
:10034000120402F4FE0243EA00631343234309B19B
:1003500043F0100305F1806105F1C06270792B60F4
:10036000C0240C6010602B681B0605D5114800F0F6
:100370009DF9114800F09AF94FF400632B6470BDA9
:100380000D4800F093F90C4800F090F9D2E70A48C4
:100390000A4C00F08BF90A4B0444A3FB0434A40D6F
:1003A000C8D0631E7F2B28BF7F231B0203F4FE44AB
:1003B000C0E700BFB800300040410500FF23F40053
:1003C00083DE1B4370B502230C46002289788360CC
:1003D0000546FFF743FF217960786279E6780B02E2
:1003E00043EA006343EA0243E27943EAC6030AB1FF
:1003F00043F00053227A0AB143F00403A2790AB110
:1004000043F00203627A0AB143F00103F329A278B0
:100410002BD0160610461CD443EA40132B616A69A0
:1004200022F4F21222F007022078E37A42EA4042F4
:100430000BB142F48042680100F18440F32900F5D9
:10044000C863A47A6A610CBF0122002284601A602A
:1004500070BD43F0E0032B616B6923F4F21322F0CB
:10046000800223F007031A43DEE7002AD1D10328D4
:1004700003D823F0706343F080630020CCE700BF13
:10048000B0F5FA4F10B50C4C38BF4FF4FA40844227
:1004900028BF044651B1631E1944B1FBF4F020B1EA
:1004A00001387F2828BF7F20C0B210BD034800F06C
:1004B000FDF80146EFE700BF0024F40040410500CD
:1004C000C0F30323013B30B4092B0CD8DFE803F061
:1004D0000D110B0B152D190B2705164CC0F304300D
:1004E00020448000016030BC7047C0F30430124CDF
:1004F000F6E7C0F30430114CF2E7C0F30430104CBF
:10050000EEE7104CC0F3043010250F4BD3F8442114
:10051000D207E5D4D3F840212A42FBD1E0E7C0F36B
:1005200004300A4C4FF48035EFE7C0F30430084C38
:100530000125EAE7800AF2100000F2100006F2102E
:100540008005F2104007F21000400E408007F210C4
:100550000007F21000F00F000138072847D8DFE845
:1005600000F0121D3346283E4604264BD3F85C317A
:1005700003F03003202B40D0302B40D0102B0CBF89
:100580000720012070471F4BD3F8943003F0070376
:10059000023B022B2FD81C4AD05C7047194BD3F872
:1005A000803003F00703013B032B22D8174AD05CAD
:1005B0007047144BD3F8883003F00703013B032B3B
:1005C00017D8134AD05C70470E4BD3F8843003F031
:1005D0000703013B032B0CD80E4AD05C7047094B34
:1005E0001B6F13F0010F14BF092007207047002074
:1005F000704701207047052070470420704708208D
:10060000704700BF00400E40DC0A0000E00A000016
:10061000E00A0000E40A000008B50146FFF79AFF6F
:100620001E4B99422FD01E4B994226D01D4B99420A
:100630001DD00138032803D8DFE800F01511042B82
:10064000002008BDFFF7DAFD174BD3F80031C3F3E4
:1006500000635A1C01239340B0FBF3F008BDBDE8D2
:100660000840FFF7F5BDBDE80840FFF7E9BD0E4BB8
:10067000D3F8800000F00700DBE70B4BD3F88800CD
:1006800000F00700D5E7084BD3F8840000F007001E
:10069000CFE7BDE80840FFF7D7BD00BF03001E004D
:1006A0000500220002001C0000400E4000F47810FB
:1006B000B0F5801F08B565D00ED9B0F5E01F3CD06D
:1006C0001BD8B0F5B01F2BD0B0F5C01F68D0B0F567
:1006D000A01F20D0002008BDB0F5802F55D03CD9F8
:1006E000B0F5402F2ED0B0F5602F46D0B0F5202FBA
:1006F000F0D1BDE80840FFF759BDB0F5081F0AD09A
:10070000B0F5401F59D0B0F5F01FE3D13848BDE82F
:100710000840FFF781BF3748BDE80840FFF77CBFBE
:100720003548FFF779FF354BD3F82021012302F03C
:100730000F029340B0FBF3F008BD2F48BDE808401E
:10074000FFF76ABFFFF732FD2C4BD3F81431C3F328
:1007500004230133B0FBF3F008BD0028C9D0B0F585
:10076000003FB7D1FFF722FD244BD3F80831C3F384
:1007700008230133B0FBF3F008BD2148FFF7EAFE80
:10078000072827D11F4B186808BDFFF70FFD1B4B2B
:10079000D3F80C31C3F308230133B0FBF3F008BDE9
:1007A0001348FFF739FF154BD3F82821012302F036
:1007B00003029340B0FBF3F008BD1348FFF7CAFEF5
:1007C0000728DFD0082809D0042883D1BDE80840D5
:1007D000FFF726BD09287FF47DAF8AE7FFF7E6FC27
:1007E000064BD3F80031C3F3042303FB000008BD1C
:1007F00003001E000500220002001C0000400E4005
:1008000006000E0010000020B8003000F0B44400D4
:100810004AB12718214D3F0101263D448E40A3B324
:1008200005F1C0652E6025182D0105F180450729C9
:1008300005F5204519D88F006E684FF00F0C0CFAA3
:1008400007FC26EA0C0602FA07F73E436E6052B92F
:100850000444124A24010120224400FA01F1C3B9E0
:1008600002F180621160F0BC704701F18046083EE1
:10087000AF68B6004FF00F0C0CFA06FC27EA0C0725
:1008800002FA06F63E43AE60E1E705F180652E60B0
:10089000C9E702F1C062F0BC116070470CA00040D3
:1008A0000B4A536911699B0003F03C03C1F38111AA
:1008B0000B438370136903F03F0343709369D2695C
:1008C00003F0F003C2F3031213430370704700BF39
:1008D000D0FF0FE030B5012187B000241D481E4D28
:1008E000FFF7EEFD21461F22FF231C48ADF806202E
:1008F000CDE903448DF804408DF811308DF80540A2
:100900008DF808408DF809400594FFF7B9FD0121E5
:10091000032249238DF807008DF80E10284601A9FF
:100920008DF80D208DF810308DF812408DF80F40A5
:10093000FFF7F4FC03A92846FFF744FD6B6C084A57
:100940004FF4804143F001036B64C2F880111160E1
:1009500007B030BD00820400002000400024F400F5
:1009600000E100E00C4A13781B0610D410B4137891
:100970000A4C0B48DBB2591CC9B21170A26C40F88A
:100980002320064B5DF8044B01229A607047034B0D
:1009900001229A60704700BF9800002000200040AC
:1009A0009C00002030B5204C204B00222270DD6CD2
:1009B00083B001A82D0EFFF773FF8E2D31D81C498F
:1009C0001C4BD1F8B0004FF0501240F00405C1F8B4
:1009D000B0501A601A631A66C3F89020C3F8C0209A
:1009E000C3F8F020C1F8B000114AD36A23F07F03A6
:1009F00043F02003D3629DF80530012B04D10E4A49
:100A0000136843F004031360FFF764FF0B4B0122EC
:100A10009A6004221146012305202578FFF7F6FE8F
:100A2000F7E78F2DE7D8DFE798000020B081E00FCF
:100A300000400E4000A0004064310E400020004005
:100A400008B5074B044613B10021AFF30080054BF6
:100A50001868836A03B19847204600F031F800BF58
:100A600000000000E80A000070B50D4E0D4CA41BFC
:100A7000A4100025A54209D10B4E0C4C00F022F821
:100A8000A41BA4100025A54205D170BD56F8253041
:100A900098470135EEE756F8253098470135F2E7DB
:100AA00074000020740000207400002078000020F2
:100AB00002440346934200D1704703F8011BF9E753
:100AC000FEE700BFF8B500BFF8BC08BC9E46704703
:100AD000F8B500BFF8BC08BC9E467047040302008E
:100AE0000302010A0302060A1400002000000000AD
:080AF00018F6FF7F0100000071
:100AF800C0EA2101005A6202C0EA21010080000018
:100B0800C0EA210100000000000000000000000011
:100B180000000000000000000000000000000000CD
:100B280000000000000000000000000000000000BD
:100B380000000000000000000000000000000000AD
:100B4800000000000000000000000000000000009D
:100B5800000000000000000000000000000000008D
:0C0B680000000000ED000000C9000000CB
:040000030000017D7B
:00000001FF
