:10000000008000207D010000A9010000A90100007E
:10001000A9010000A9010000A9010000A901000038
:10002000A9010000A9010000A9010000A901000028
:10003000A9010000A9010000A9010000A901000018
:10004000A9010000A9010000A9010000A901000008
:10005000A9010000A9010000A9010000A9010000F8
:10006000315B0000495A0000A9010000A90100000D
:10007000A9010000A9010000715A0000A9010000B7
:10008000A9010000F1590000A9010000A901000028
:10009000A9010000A9010000A9010000A9010000B8
:1000A000A9010000A9010000A9010000A9010000A8
:1000B000A9010000A9010000A9010000A901000098
:1000C000A9010000A901000010B5054C237833B93F
:1000D000044B13B10448AFF300800123237010BD1B
:1000E0000C0200200000000070BD000008B5034BAA
:1000F0001BB103490348AFF3008008BD00000000B6
:100100001002002070BD0000154B002B08BF134BE0
:100110009D46A3F5803A00218B460F461348144AAA
:10012000121A07F0E6FF0F4B002B00D098470E4B3A
:10013000002B00D098470020002104000D000D483E
:10014000002802D00C48AFF3008007F083FF2000A6
:10015000290007F081F907F073FE00BF00000800D6
:100160000080002000000000000000000C020020C1
:100170004006002000000000000000000648804704
:100180000649074A074B9A42BEBF51F8040B42F892
:10019000040BF8E7FFF7B8FF890200007CBD000000
:1001A000000000200C020020FEE700BF80B582B0F6
:1001B00000AF00F025F878600A4BD3F808311B0A2D
:1001C000C3F308033B603B6801337A68B2FBF3F387
:1001D0007B60054A7B6813607B6818460837BD461C
:1001E00080BD00BF00400E400800002080B400AF7A
:1001F000024B1846BD465DF8047B7047005A620208
:1002000080B483B000AF164BD3F8943003F00703EB
:10021000032B08D0042B02D0022B08D00BE0114B8B
:100220001B687B600BE04FF400437B6007E00E4BE4
:100230001B687B6003E00D4B1B687B6000BF084BB5
:10024000D3F800311B0A03F01F0301337A68B2FBB5
:10025000F3F318460C37BD465DF8047B704700BFCA
:1002600000400E4004000020000000200C00002090
:1002700080B400AF034B1B681846BD465DF8047B95
:10028000704700BF0000002080B400AF064BD3F8D9
:100290008830054A43F47003C2F8883000BFBD4679
:1002A0005DF8047B704700BF00ED00E080B400AF54
:1002B0004FF400431846BD465DF8047B704780B498
:1002C00000AF4FF47A731846BD465DF8047B704763
:1002D00080B400AF034B1B681846BD465DF8047B35
:1002E000704700BF0400002080B582B000AF114B02
:1002F0007B60114B1B7883F00103DBB2002B13D022
:100300000D4B01221A700BE07B681B689847386020
:100310003B68002B01D03B6807E07B6804337B60BF
:100320007B681B68002BEFD1002318460837BD46B9
:1003300080BD00BF100000205402002080B584B0B2
:1003400000AF78603960114B1B7883F00103DBB29A
:10035000002B02D00E4BFB6012E07B68002B0DDC03
:100360007B682C2202FB03F30A4A13442C22194611
:10037000386807F0B3FE0023FB6001E0064BFB602A
:10038000FB6818461037BD4680BD00BF54020020F0
:1003900005001180280200200200118080B584B081
:1003A00000AF7860134B1B7883F00103DBB2002BA6
:1003B00002D0114BFB6017E0104B1B68002B11DCC7
:1003C0000E4B1B685A1C0D490A602C2202FB03F3DA
:1003D0000B4A13442C227968184607F07FFE00234D
:1003E000FB6001E0074BFB60FB6818461037BD4619
:1003F00080BD00BF5402002005001180580200207B
:10040000280200200100118080B58CB000AF00F000
:100410009BFA00F02DFA00F0B1FA00230022082127
:10042000022000F0BBFA002300220621022000F087
:10043000B5FA002300220E21032000F0AFFA0023BA
:1004400000220F21032000F0A9FA002300220D2131
:10045000032000F0A3FA80220D21032005F08EFB7B
:10046000F862FB6A002B01D0FB6A27E0154B3B606A
:1004700001233B7400237B7480237B608023FB601B
:100480007B68BB60104B7B61104BBB61104BFB6109
:10049000104B3B62104B7B62104BBB623B461846D5
:1004A000FFF77CFFF862FB6A002B06D13B46012177
:1004B000184600F024F800F039F8FB6A1846303787
:1004C000BD4680BD90AD0000FF0400007505000032
:1004D000E50500004106000001060000E1040000FF
:1004E00080B584B000AF78600023FB6000F02CFA88
:1004F00000F0BEF9FB6818461037BD4680BD80B5D8
:1005000082B000AF78600B46FB70FB78002B04D004
:100510000F21032000F062FA03E00F21032000F016
:100520006FFA002318460837BD4680BD80B582B0FB
:1005300000AF0E21032000F051FA062000F010FA5F
:100540000B4B1B7843F00403DBB29BB2FB80BB1D5B
:100550000221184600F0BEF9022000F001FA0E2137
:10056000032000F04DFA002318460837BD4680BD31
:100570005C02002080B487B000AFF860B9607A6098
:100580003B60BB68DA087B6802FB03F37B61BB68F6
:10059000802B01D00F4B16E00F4B1A687B69134478
:1005A0000E4A934204D93B6800221A600C4B0AE0C1
:1005B000094B1A683B681A60074B1A687B69134439
:1005C000054A1360002318461C37BD465DF8047BBE
:1005D000704700BF0200118018000020E0020020D8
:1005E0000100118080B483B000AF78603960034BA4
:1005F00018460C37BD465DF8047B70470400118037
:1006000080B586B000AFF860B9607A603B60BB68C7
:100610007B6100233B610AE010220021786907F02A
:1006200068FD7B6910337B613B6901333B613A694B
:100630003B689A42F0D3002318461837BD4680BD68
:1006400080B588B000AFF860B9607A603B60BB6885
:10065000BB61BB6A0133BB620E21032000F0BEF90F
:10066000062000F07DF9BB6A9BB21B029BB243F0EF
:1006700001039BB2FB8207F116030221184600F02A
:1006800029F90023FB6126E01021B86900F022F966
:10069000BB691033BB61FB6A013BFA699A4203D123
:1006A0004FF6FF73FB820DE0BB6A9AB2FB699BB207
:1006B00013449BB201339BB21B029BB243F0FF0376
:1006C0009BB2FB8207F116030221184600F002F9E3
:1006D000FB690133FB61FA69FB6A9A42D4D30220B9
:1006E00000F03EF90E21032000F08AF9002318469D
:1006F0002037BD4680BD80B485B000AF78603960DA
:100700007B6803F1C063FB60FB683A681A6000BF56
:100710001437BD465DF8047B704780B485B000AFE8
:10072000786039607B6803F18063FB60FB683A683E
:100730001A6000BF1437BD465DF8047B70470000A7
:1007400080B582B000AF03463960FB71FB79002BA6
:100750001DD0FB79012B17D0FB79022B11D0FB792F
:10076000032B0BD0FB79042B06D0FB79052B01D191
:10077000FF230DE000230BE0002309E04FF47E434C
:1007800006E04FF47C6303E04FF4784300E03F233E
:100790003A68134103F00103002B04D140F25931B0
:1007A0000C4801F033FEFA7913465B0013441B0139
:1007B0000C3303F1804303F5204301213A6801FA29
:1007C00002F211461846FFF7A8FF00BF0837BD46E2
:1007D00080BD00BFA8AD000080B582B000AF034669
:1007E0003960FB71FB79002B1DD0FB79012B17D0F1
:1007F000FB79022B11D0FB79032B0BD0FB79042B57
:1008000006D0FB79052B01D1FF230DE000230BE07F
:10081000002309E04FF47E4306E04FF47C6303E0DD
:100820004FF4784300E03F233A68134103F001039B
:10083000002B04D140F286310C4801F0E7FDFA7933
:1008400013465B0013441B010C3303F1804303F593
:10085000204301213A6801FA02F211461846FFF7D7
:100860004AFF00BF0837BD4680BD00BFA8AD0000ED
:10087000B0B588B000AF0023FB61124B3C1D1D4694
:100880000FCD0FC495E8030084E8030001210E4852
:1008900002F00AF90D4BFB603B1D19460C4804F0B1
:1008A00041FE0B4B0A225A67094B9B6F23F01F2313
:1008B000074A43F00B239367FB6918462037BD4670
:1008C000B0BD00BF0CAE000000320400E067350090
:1008D0000004014080B584B000AF78603960002327
:1008E000FB6020E03B68012B04D07B6803F0010330
:1008F000002B0CD07B681B781946124804F0DEFEF2
:100900003B68013B3B607B6801337B600BE07B68AD
:100910001B8819460B4804F0E7FE3B68023B3B602E
:100920007B6802337B603B68002BDBD100BF054B4B
:100930001B6903F02003002BF9D0FB681846103721
:10094000BD4680BD0004014080B582B000AF0023E9
:100950007B6000F0BDFE7B6818460837BD4680BD51
:1009600080B584B000AF78600023FB60786800F049
:1009700075FFFB6818461037BD4680BD80B582B054
:1009800000AF00237B600121034802F08DF87B68F3
:1009900018460837BD4680BD0025080080B586B0E2
:1009A00000AFF860B9603B601346FB7100237B61C8
:1009B000FB79002B0BD10423FB7400BFFB68D8B27A
:1009C000FA7C3B68B96804F0B5F97B6900E0024B3A
:1009D00018461837BD4680BD0100138080B584B02D
:1009E00000AF786039600023FB607B68DBB2396858
:1009F0001846FFF7F1FEFB6818461037BD4680BD6C
:100A000080B584B000AF786039600023FB607B68FC
:100A1000DBB239681846FFF793FEFB6818461037BB
:100A2000BD4680BD80B483B000AF78600023184617
:100A30000C37BD465DF8047B704780B483B000AFCF
:100A40007860FEE780B483B000AF786039603B68BF
:100A50004FF400525A60002318460C37BD465DF82B
:100A6000047B704780B483B000AF786001231846E0
:100A70000C37BD465DF8047B704780B485B000AF8D
:100A8000F860B9607A60002318461437BD465DF8F7
:100A9000047B704780B586B000AFF860B9607A60BB
:100AA00000237B610FE000F0A9F838613B69B3F1E6
:100AB000FF3F0ED0BB685A1CBA603A69D2B21A70B6
:100AC0007B6901337B617B685A1E7A60002BEAD117
:100AD00000E000BF7B69002B02DC4FF0FF3300E039
:100AE0007B6918461837BD4680BD000090B585B0BB
:100AF00000AF7860184B1B68002B02D1164B174AC9
:100B00001A60154B1B68FB60134B1A687B68134413
:100B1000EFF3088214462246934212D9104B1B6809
:100B20009B68184607F0A0F904460E4808F0BDF887
:100B300003461A460B49204600F016F8012007F03C
:100B40007FF9054B1A687B681344034A1360FB68FE
:100B500018461437BD4690BDE00200204006002034
:100B60003400002024AE000080B586B000AFF860ED
:100B7000B9607A6000237B6109E0BB685A1CBA60E7
:100B80001B78184600F044F87B6901337B617A6971
:100B90007B689A42F1DB7B6818461837BD4680BDFA
:100BA00080B58EB000AF07F1080319460020FFF7AB
:100BB000C5FB78637B6B002B16D100233B600123C0
:100BC0003B7101237B713B460A49184600F03AF815
:100BD00078637B6B002B07D1074B1B689868002359
:100BE0000222002107F070FF7B6B18463837BD46A4
:100BF00080BD00BFE40200203400002080B400AFBC
:100C00004FF0FF331846BD465DF8047B7047000087
:100C100080B582B000AF0346FB71094B1B68002B07
:100C200008D0074B1B68FA791146184600F0F0F817
:100C3000FB7901E04FF0FF3318460837BD4680BD11
:100C4000E402002090B587B000AF786039600023DF
:100C50007B6100233B6117E0684A3B69582101FB37
:100C600003F3134455331B7883F00103DBB2002BED
:100C700007D03B69582202FB03F3604A13447B61AF
:100C800005E03B6901333B613B69002BE4DD7B6997
:100C9000002B01D15A4BADE07B681A687B690433A5
:100CA00019461046FFF74AFBB860BB68002B01D01D
:100CB000BB689FE07B695B7D002B1FD17B69DC6992
:100CC0007B69181D7B6999687B693C330822A047C2
:100CD000B860BB68002B01D0BB688BE07B699C6A65
:100CE0007B69181D7B69D96B7B699A680823A047CB
:100CF000B860BB68002B04D0BB687BE07B69002236
:100D0000DA63404A3B691B0113441A687B691B691B
:100D1000DB089A4201D93C4B6CE03A4A3B691B0123
:100D2000134404331A687B699B683849A1FB031399
:100D30009B089A4201D9344B5CE0324A3B691B0163
:100D400013441A687B695A632E4A3B691B0113449A
:100D500004331A687B691A632A4A3B691B011344EE
:100D600008331A687B691A64264A3B691B011344DD
:100D70000C331A687B695A647B681A687B691A604D
:100D80007B681A797B6983F838207B685A797B699C
:100D900083F839200023FB6010E07B69196C7B69C4
:100DA0001B6BFA6802FB03F27B69586CFB689B00C3
:100DB00003440A441A60FB680133FB607B695B6B88
:100DC000FA689A42E9D37B69002283F848207B695C
:100DD000002283F849207B69002283F84A20786941
:100DE00000F088F87B69012283F855203B687A6916
:100DF0001A60002318461C37BD4690BDE80200204B
:100E0000050012801C00002002001280ABAAAAAAD2
:100E100080B584B000AF78600B46FB707B68FB60E8
:100E2000FB6893F8553083F00103DBB2002B01D04F
:100E30002F4B58E0FB685B7D002B04D1FB6801223F
:100E400083F8542003E0FB68022283F85420FB68F7
:100E500093F83830002B0FD0FB68DB6C002B17D1D8
:100E6000FB681A6DFB685B6B013B9A4210D1FB6813
:100E7000002283F854200BE0FB68DB6C002B07D1C9
:100E8000FB681B6D002B03D1FB68002283F8542004
:100E9000FB780C2B0BD1F86800F02CF8FB680022D3
:100EA00083F85420F86800F05DFB03461BE0FB6804
:100EB00093F83930002B06D0FB780A2B03D10D2193
:100EC000F86800F051F9FB781946F86800F04CF921
:100ED000FB6893F85430032B04D0F86800F042FB11
:100EE000034600E0002318461037BD4680BD00BF12
:100EF0000600128080B582B000AF78607B685B6CC2
:100F0000002B15D07B68186C7B685B6B7A68126B62
:100F100002FB03F31A46002107F0EBF87B6800227E
:100F2000DA647B6800221A657B68002283F854200B
:100F300000BF0837BD4680BD80B584B000AF786083
:100F40000023FB6014E07B685A6CFB689B00134431
:100F500018687B685A6CFB6801339B00134419685E
:100F60007B681B6B1A4607F0B9F8FB680133FB601E
:100F70007B685B6B013BFA689A42E4D37B685A6CEE
:100F80007B685B6B03F18043013B9B001344186853
:100F90007B681B6B1A46002107F0ABF87B680022C8
:100FA000DA647B685B6B5A1E7B681A657B6800227B
:100FB00083F8542000BF1037BD4680BD80B586B091
:100FC00000AF786039600023FB733B681B2B0ED1A8
:100FD00004220021624807F08CF83B68DAB2604BCB
:100FE0001A707B68032283F854200123B3E05C4B22
:100FF0001B781B2B01D00023ADE0594B7B617B6933
:1010000001337B617B691B78002BF8D13B68DAB236
:101010007B691A70524807F048FEB86000233B61B4
:1010200078E03B699B004F4A1344BA6819464C4824
:1010300007F043FE0346002B69D10123FB737B6855
:10104000032283F854203B699B00464A1344184608
:1010500007F02BFE0246BB6893425FD13B69052B2C
:101060004AD801A252F823F081100000811000003C
:101070008F100000A3100000BD100000D71000006A
:101080007B6800221A657B680022DA6434E07B68A2
:101090001B6D002B29D07B681B6D5A1E7B681A655F
:1010A00023E07B681A6D7B685B6B013B9A421ED222
:1010B0007B681B6D5A1C7B681A6518E07B68DA6CCC
:1010C0007B681B6B013B9A4213D27B68DB6C5A1C1A
:1010D0007B68DA640DE07B68DB6C002B0BD07B68EF
:1010E000DB6C5A1E7B68DA6405E000BF04E000BFD9
:1010F00002E000BF00E000BF04220021184806F013
:10110000F8FF7B68032283F85420012323E03B6926
:1011100001333B613B69052B83DD00E000BFFB7BB6
:1011200083F00103DBB2002B06D0042200210C481F
:1011300006F0DFFF00230EE0BB68032B0AD1042278
:101140000021074806F0D5FF7B68032283F854206E
:10115000012300E0FB7B18461837BD4680BD00BF69
:101160004003002060B1000080B582B000AF78601D
:1011700039603B680A2B08D00D2B02D0082B24D0F5
:1011800038E07B680022DA6486E07B681B6D5A1CBD
:101190007B681A657B680022DA647B681A6D7B685D
:1011A0005B6B9A4275D37B6893F83830002B08D07C
:1011B0007868FFF7C1FE7B685B6B5A1E7B681A6517
:1011C00067E07868FFF796FE63E07B681B7D002B85
:1011D00010D07B681B7D012B0CD07B68FF2283F82D
:1011E00048207B68002283F849207B68002283F82E
:1011F0004A2051E039687868FFF7E0FE0346002B8B
:1012000049D106F04BFF02463B68013313441B787B
:1012100003F09703002B01D120233B607B68DA6C3D
:101220007B681B6B9A4207D37B680022DA647B6879
:101230001B6D5A1C7B681A657B681A6D7B685B6B3B
:101240009A4210D37B6893F83830002B08D0786826
:10125000FFF772FE7B685B6B5A1E7B681A6502E0C3
:101260007868FFF747FE3B68DAB27B68596C7B68A9
:101270001B6D9B000B4419687B68DB6C0B44203AA8
:10128000D2B21A707B68DB6C5A1C7B68DA6400BFD0
:1012900002E000BF00E000BF0837BD4680BD00008F
:1012A000B0B592B002AF786039607B68DB6B7B636E
:1012B0000023BB6334E10023FB6373E07B685A6C5B
:1012C0003B689B0013441A68FB6B13441B78FB7349
:1012D000FA7BBB6B642101FB03F313449F4AD35C8D
:1012E00087F833307B681B7D002B08D0002B54DB44
:1012F000022B52DC97F83330DB4387F83330FA6B3C
:1013000013465B0013445B00BB60BB68BB623EE0FE
:1013100097F8333003F00103002B17D0BB6ADB10C2
:101320001A467B6B13441B785AB2BB6A03F007035F
:10133000012101FA03F35BB213435AB2BB6ADB101B
:1013400019467B6B0B44D2B21A7018E0BB6ADB10F3
:101350001A467B6B13441B785AB2BB6A03F007032F
:10136000012101FA03F35BB2DB435BB213405AB2D3
:10137000BB6ADB1019467B6B0B44D2B21A7097F82C
:1013800033305B0887F83330BB6A0133BB62BB681C
:101390000633BA6A9A42BBDB01E0714BDAE0FB6BC1
:1013A0000133FB637B681B6BFA6B9A4286D37B68C5
:1013B0001B7D013B012B38D8FA6B13465B001344AD
:1013C0005B007B627B6A03F00703BB61BB69002B98
:1013D0001CD07B6ADB101A467B6B13441B785AB215
:1013E0000121BB6901FA03F3DBB25B42DBB25BB202
:1013F00013435AB27B6ADB1019467B6B0B44D2B2A3
:101400001A707A6ABB69D31A08337B627B6ADB1075
:101410001A467B6B98187B689A687B6AD31ADB083C
:101420001A46FF2106F065FE00E000BF7B681B7DC9
:10143000022B6CD17B6893F84830DB09DBB25AB2DF
:101440007B6893F849309B115BB203F002035BB2F7
:1014500013435AB27B6893F84A305B115BB203F0D6
:1014600004035BB213435BB2FB757B6B3B617B6830
:101470009B68DB08013B3B6246E00023FB620023E4
:10148000FB611BE03B6A3A6913441B781A46FB690F
:1014900042FA03F303F00103002B01D1FA7D00E0CF
:1014A0000722F9690B465B000B4402FA03F31A4664
:1014B000FB6A1343FB62FB690133FB61FB69072B8A
:1014C000E0DD3A6A13465B0013441A463B69134455
:1014D000FA6AD2B21A70FB6A190A3A6A13465B00BA
:1014E000134401333A691344CAB21A70FB6A190CE7
:1014F0003A6A13465B00134402333A691344CAB292
:101500001A703B6A013B3B623B6A002BB5DA7B6891
:10151000DB68DB087A6B13447B63BB6B0133BB6313
:10152000BB6B072B7FF6C7AE7B685C6A7B68181DB8
:101530007B68D96B7B681A6B13465B0013445B00B6
:101540001D463B68DB000822019200932B460022D7
:10155000A047034618464037BD46B0BD40AE000028
:101560000400128090B587B002AF78607B6893F872
:101570005430012B71D0022B7DD0002B02D000BF44
:10158000002379E07B685B7D002B63D10023FB6047
:1015900006E0F9687868FFF783FEFB680133FB60BB
:1015A0007B685B6BFA689A42F3D37B685B6BDA000B
:1015B0007B681B699A424FD27B681B7D012B0DD043
:1015C000022B15D0002B20D17B68D86B7B689B68E1
:1015D000DB081A46002106F08CFD18E07B68D86B0A
:1015E0007B689B68DB081A46FF2106F082FD0EE04F
:1015F0007B68D86B7B689A6813465B001344DB08F2
:101600001A46FF2106F075FD01E01D4B34E07B68B2
:101610005B6BDB00FB6017E07B685C6A7B68181D16
:101620007B68D96B7B689A6801230193FB68009300
:1016300013460022A047B860BB68002B01D0BB68EE
:101640001AE0FB680133FB607B681B69FA689A4209
:10165000E2D301E00A4B0FE000BF7B685B7D002B0B
:1016600007D17B681B6D19467868FFF719FE0346A2
:1016700002E0034B00E0024B18461437BD4690BD14
:101680000400128080B483B000AF0346FB71FB7985
:1016900003F01F02074997F907305B09012000FAA0
:1016A00002F2603341F8232000BF0C37BD465DF8DD
:1016B000047B704700E100E080B400AF034B9B68FF
:1016C0001846BD465DF8047B704700BF002004400B
:1016D00080B58AB000AF002387F82730002387F851
:1016E0002630002387F82530002387F82430002394
:1016F00087F82330534A3B4607CA03C31A700023B6
:10170000FB610023BB61504BD3F8B03003F0010301
:10171000002B06D101214D4801F0C6F9012387F8BD
:1017200026304B4801F008FD0346FB75FB7D032B7B
:1017300002D0012387F82430434BD3F8903003F0D4
:101740004003002B02D1012387F8233003214048B6
:1017500001F0C0FD3F4801F08BF938613A4BD3F8F6
:10176000F03003F00103002B06D10121394801F0CC
:101770009BF9012387F8253002F04CFAF860364BCC
:101780001B6803F00103002B15D0334B1B68FB6172
:10179000314B5B6ABB61304B00221A602E4B00223A
:1017A0005A622D4B40F2FF721A621D20FFF76AFF4A
:1017B000012387F827300023BB700023FB70082328
:1017C0003B713B46184603F003FE00F065F8F868ED
:1017D00002F030FA97F82730002B0AD039691D48FB
:1017E00001F053F91C4AFB6913601B4ABB69536241
:1017F00002E0002003F0DAFD97F82530002B03D03B
:101800000021144801F050F997F82430002B04D03F
:10181000FB7D19460E4801F05DFD97F82330002B43
:1018200004D000220021012001F0C2FF97F82630E9
:10183000002B03D00021054801F036F900BF2837FE
:10184000BD4680BD78B1000000400E400005080094
:1018500005002000800912000020044080B483B0FD
:1018600000AF78607B680B49002B0CD0013B8822CD
:101870001202003253430A68D80AD20A5043800940
:1018800001D00138FDD800BF0C37BD465DF8047BA0
:10189000704700BF2C00002080B584B000AF082343
:1018A000BB60334B4FF480521A601AE000F062F8CC
:1018B000786000BF00F05EF802467B689342F9D082
:1018C00000F058F878602A4B1B68184600F059F869
:1018D00000F050F802467B68D31A7B607B68002BCF
:1018E00007D1234B1B685B00214A1360002BDDD11D
:1018F00000E000BF1E4B1B685B081D4A13601C4BB9
:101900001B68FB6024E01A4B1A68FB681343184AF3
:10191000136000F02FF8786000BF00F02BF802464B
:101920007B689342F9D000F025F87860104B1B6873
:10193000184600F026F800F01DF802467B68934236
:1019400006D0FB68DA430A4B1B681340084A136051
:10195000BB685A1EBA60002B05D0FB685B08FB60B1
:10196000FB68002BCFD100BF1037BD4680BD00BF44
:101970002C00002080B500AFFFF79EFE03461846FE
:1019800080BD80B483B000AF78607B68013BFDD838
:1019900000BF0C37BD465DF8047B704780B483B050
:1019A00000AF786039607B683A681A6400BF0C3712
:1019B000BD465DF8047B704780B487B000AFF86027
:1019C000B9607A60FB6803F10473DA00BB68134402
:1019D0009B007B617B697A681A6000BF1C37BD463B
:1019E0005DF8047B704780B485B000AF78603960E3
:1019F0007B6803F1C063FB60FB683A681A6000BF54
:101A00001437BD465DF8047B704780B485B000AFE5
:101A1000786039607B6803F18063FB60FB683A683B
:101A20001A6000BF1437BD465DF8047B704780B56F
:101A300084B000AFF860B9607A60B968F868FFF701
:101A4000E4FF7968F868FFF7CEFF00BF1037BD46A6
:101A500080BD000080B489B000AF78600B46FB7099
:101A60001346BB70BB78002B04D010237B616C4BFA
:101A7000BB6103E000237B616A4BBB617B685B6BEE
:101A8000BA6913403B610023FB617B68664A93425D
:101A900040F0BF80654BFB60FB78022B43D0022BEC
:101AA00004DC002B0AD0012B22D0A7E0062B75D036
:101AB000812B00F08680032B52D09FE0FB681B68CF
:101AC0001B0A1B0203F4FE43FA691343FB61FB6824
:101AD0001B6803F00F03FA691343FB61FB681B6883
:101AE0001B091B0103F0F003FA691343FB6188E053
:101AF000FB681B681B0E1B0203F4FE43FA691343C9
:101B0000FB61FB681B681B0C03F00F03FA691343AE
:101B1000FB61FB681B681B0D1B0103F0F003FA69F6
:101B20001343FB616DE0FB6804331B681B0A1B0257
:101B300003F4FE43FA691343FB61FB6804331B683B
:101B400003F00F03FA691343FB61FB6804331B685E
:101B50001B091B0103F0F003FA691343FB6150E01A
:101B6000FB6804331B681B0E1B0203F4FE43FA6977
:101B70001343FB61FB6804331B681B0C03F00F036A
:101B8000FA691343FB61FB6804331B681B0D1B01DF
:101B900003F0F003FA691343FB6132E0FB6808339A
:101BA0001B6803F00F03FA691343FB61FB680833FA
:101BB0001B681B091B0103F0F003FA691343FB6167
:101BC0001FE0FB6804331B681B0A1B0203F4FE437F
:101BD000FA691343FB61FB6804331B6803F00F03CE
:101BE000FA691343FB61FB6804331B681B091B0183
:101BF00003F0F003FA691343FB6102E00023FB6189
:101C000000BFFA697B699A403B691A437B685A6353
:101C100000E000BF2437BD465DF8047B704700BF7D
:101C2000FFFF00800080FFFF002000401082E00FD7
:101C300080B584B000AF786039603B68DB78FB72B8
:101C40007B68224A934204D040F28511204800F07C
:101C5000DDFBFB7A002B06D100211E4800F030FB93
:101C60000346FB7201E0194B1B687B680A229A60ED
:101C70003B681B781A063B689B781B0403F4FE0341
:101C80001A43FB7A1B0203F4FE4313433A6852786B
:101C90001343FB603B681B79002B03D0FB6843F0C8
:101CA0001003FB607B68FA681A603B685B791A4630
:101CB000C0210648FFF7BBFE4FF400617868FFF7CC
:101CC0006DFE00BF1037BD4680BD00BF0020004044
:101CD00084B100000024F40080B586B000AF7860C5
:101CE0000B46FB701346BB707B6800221A74BB78EE
:101CF000102B07D9BB781E2B04D840F2E9112748D6
:101D000000F084FBBB78DB08DBB27B617B685A6840
:101D1000FB78DB0022FA03F3DBB23B613B69FF2B6C
:101D200015D17B685B68FA78D200FF2101FA02F2D4
:101D3000D2431A407B685A607B685A68FB78DB00A4
:101D4000796901FA03F31A437B685A6008E03A693B
:101D50007B699A4204D04FF4FC71104800F056FBA6
:101D6000FB78DA00BB7803F007031344FB60FB68E1
:101D70001F2B04D940F2FD11084800F047FB7B6897
:101D80009B680121FA6801FA02F21A437B689A60A3
:101D9000FB6818461837BD4680BD00BF84B10000FF
:101DA00080B586B000AF7860084611461A460346F3
:101DB000FB700B46BB7013467B7000237B610023D6
:101DC0003B610023FB600023BB60BA78FB781946B7
:101DD0007868FFF781FFB8607B6801221A747B780E
:101DE000FF2B00F0F580BB68002B0CD103237B6137
:101DF00000233B61FB78002B7ED040F235217748F1
:101E000000F004FB78E0BB68022B0CD10C237B6153
:101E100002233B61FB78002B6ED040F239216F48E2
:101E200000F0F4FA68E0BB68042B0CD130237B612E
:101E300004233B61FB78002B5ED040F23D216748D4
:101E400000F0E4FA58E0BB68062B0CD1C0237B619C
:101E500006233B61FB78002B4ED040F241215F48C6
:101E600000F0D4FA48E0BB68092B0DD14FF4407361
:101E70007B6108233B61FB78012B3DD040F245217B
:101E8000564800F0C3FA37E0BB680B2B0DD14FF476
:101E900040637B610A233B61FB78012B2CD040F22D
:101EA00049214E4800F0B2FA26E0BB680D2B0DD157
:101EB0004FF440537B610C233B61FB78012B1BD01B
:101EC00040F24D21454800F0A1FA15E0BB680F2B08
:101ED0000DD14FF440437B610E233B61FB78012B16
:101EE0000AD040F251213D4800F090FA04E04FF44E
:101EF00015713A4800F08AFAFB78002B27D17B78DD
:101F0000013B062B1CD801A252F823F0291F000028
:101F1000411F00002F1F0000411F0000351F00005F
:101F2000411F00003B1F00000023FB6040E0012335
:101F3000FB603DE00223FB603AE00323FB6037E0F7
:101F40004FF41B71254800F061FA00BF30E0FB78C8
:101F5000012B28D17B78083B062B1DD801A252F813
:101F600023F000BF811F0000991F0000871F0000A1
:101F7000991F00008D1F0000991F0000931F000093
:101F80000023FB6014E00123FB6011E00223FB60EF
:101F90000EE00323FB600BE04FF421710F4800F0CB
:101FA00035FA00BF04E040F289210C4800F02EFA17
:101FB0007B68DA687B69DB431A407B68DA607B68A0
:101FC000DA68F9683B6901FA03F31A437B68DA605F
:101FD000BB6818461837BD4680BD00BF84B10000FD
:101FE00080B584B000AF786039607B684C4A93421A
:101FF00004D040F2B1214B4800F008FA7B68082277
:102000009A603B689B78012219467868FFF722FDA9
:102010003B685B781A063B68DB78DB001343FB60A8
:102020003B685B7C002B03D0FB6843F00053FB60F4
:102030003B689B7C002B03D0FB6843F00403FB60F0
:102040003B681B7C002B03D0FB6843F00203FB6062
:102050003B68DB7C002B08D04FF43671314800F030
:10206000D5F9FB6843F00103FB603B689B785BB2EA
:10207000002B04DAFB6843F0E003FB6006E03B68FA
:102080009B785B011A46FB681343FB607B68FA6828
:102090009A617B68DB6923F4F21323F00703FB608A
:1020A0003B689B785BB2002B06DA3B689B7823F099
:1020B0008003FA681343FB603B681B785B041A4695
:1020C000FB681343FB603B685B7D002B03D0FB6820
:1020D00043F48043FB607B68FA68DA6178683B68A8
:1020E0001B7D1A460321FFF767FC3B685B68B3F171
:1020F000FF3F04D140F20A310A4800F087F93B68FB
:102100005A687B685A623B689A687B681A623B68C7
:10211000DA687B689A6200BF1037BD4680BD00BF99
:102120000020004084B1000080B584B000AF78602A
:1021300039607B68554A934204D04FF44E7154483D
:1021400000F064F97B6802229A603B689B78002269
:1021500019467868FFF77EFC3B685B781A063B6897
:102160001B791B021A433B685B791B0413431A4615
:102170003B68DB78DB001343FB603B68DB79002BBB
:1021800003D0FB6843F00053FB603B681B7A002BD5
:1021900003D0FB6843F00403FB603B689B79002B92
:1021A00003D0FB6843F00203FB603B685B7A002BC3
:1021B00003D0FB6843F00103FB603B681B79F32B02
:1021C0000DD13B689B78002B09D13B685B78032BD2
:1021D00005D8FB6823F0706343F08063FB603B68C5
:1021E0009B785BB2002B04DAFB6843F0E003FB60F2
:1021F00006E03B689B785B011A46FB681343FB6073
:102200007B68FA681A617B685B6923F4F21323F038
:102210000703FB603B689B785BB2002B06DA3B68E8
:102220009B7823F08003FA681343FB603B681B78BC
:102230005B041A46FB681343FB603B68DB7A002BA8
:1022400003D0FB6843F48043FB607B68FA685A6103
:1022500078683B689B7A1A460221FFF7ADFB3B6822
:102260001B79F32B07D17B683033012210211846EC
:10227000FFF7A2FB06E07B683033002210211846EE
:10228000FFF79AFB00BF1037BD4680BD002000401D
:1022900084B1000080B485B000AF786039607B689D
:1022A0009B6EFB60FB681B0C03F01F023B681A600F
:1022B000FB689BB218461437BD465DF8047B704737
:1022C00080B584B000AF786039607B68134A934270
:1022D00002D9124B7B6006E07B68B3F5FA4F02D25D
:1022E0004FF4FA437B603B68002B03D10C4800F0AD
:1022F00047FC38603A687B6813445A1E7B68B2FB1F
:10230000F3F3FB60FB68002B02D0FB68013BFB6032
:10231000FB68DBB218461037BD4680BD0024F400D0
:102320004041050080B582B000AF78607B680A222A
:102330009A607B681F4A1A617B6800225A617B6839
:1023400000229A617B680022DA617B684FF4F81200
:102350001A607B6800225A647B68174A1A647B689B
:1023600000221A637B6800221A627B6800225A628C
:102370007B6843F6E4129A627B68D3F88C3043F0B2
:1023800001027B68C3F88C207B68D3F8903043F05F
:1023900001027B68C3F89020002200217868FFF7D3
:1023A00059FB012200217868FFF754FB00BF083772
:1023B000BD4680BD00FFFF00000F030380B582B063
:1023C00000AF78607B68002B08D10E4800F0D8FB86
:1023D00078607B68002B01D101237B607B6803F56B
:1023E000742303F23F237B607B68074AA2FB03232D
:1023F0009B0C7B607B68DBB2013BDBB21846083785
:10240000BD4680BD4041050083DE1B4380B483B0E0
:1024100000AF78603960FEE780B487B000AFF86045
:10242000B9607A60FB6803F10473DA00BB68134497
:102430009B007B617B697A681A6000BF1C37BD46D0
:102440005DF8047B704780B485B000AF7860396078
:102450007B6803F10473DA003B6813449B00FB6064
:10246000FB681B6818461437BD465DF8047B70474F
:1024700080B483B000AF786001227B6802FA03F376
:1024800018460C37BD465DF8047B704780B584B0B4
:1024900000AF78607B68B3F5004F04D340F236712B
:1024A0000D48FFF7B3FF7B680133B3FA83F3C3F141
:1024B0001F03FB60F868FFF7DBFF0346013B7A6808
:1024C0009A4204D040F23C710348FFF79FFFFB683B
:1024D00018461037BD4680BDE8B1000080B584B015
:1024E00000AF78600123FB607B68124A934204D8F6
:1024F0000023FB600023BB6008E07B680E4A934228
:1025000002D80123BB6001E00223BB60FA681021FE
:102510000A48FFF781FF094BD3F8003123F080729E
:10252000BB681B0605491343C1F8003100BF1037D3
:10253000BD4680BD0048E8010090D00300400E4039
:1025400080B483B000AF054B1B687B607B68184686
:102550000C37BD465DF8047B704700BF300000209B
:1025600080B582B000AFFDF74BFE7860064BD3F824
:1025700000311B0A03F01F0301337A6802FB03F3E7
:1025800018460837BD4680BD00400E4080B582B079
:1025900000AF0F4800F0D0FD0346FB70FB78072B1F
:1025A00005D0092B07D1FDF72BFE78600BE0FFF774
:1025B000C7FF786007E04FF4E3710648FFF726FF96
:1025C00000237B6000BF7B6818460837BD4680BD8E
:1025D00006000C004CB2000080B584B000AF7860FB
:1025E0007B68002B1CD1204800F0A6FD0346FB723F
:1025F00000BFFB7A013B072B28D801A252F823F039
:102600002F2600004D2600004D2600003D2600002C
:102610004D2600004D26000035260000452600000E
:1026200040F2E7111148FFF7F1FE002317E0002305
:10263000FB6013E0FFF784FFF8600FE0FDF718FE82
:10264000F8600BE0FFF78CFFF86007E040F2FD1147
:102650000648FFF7DBFE0023FB6000BFFB6818465F
:102660001037BD4680BD00BF98002E004CB2000060
:1026700080B485B000AF786039601A4B1B6C002BBA
:1026800014BF01230023FB72164B41F671321A640A
:10269000144B5B6803F04073FB607B68124A934203
:1026A00002D80023FB6005E07B68104A934201D802
:1026B0000123FB60FB681B06FB600A4B5B6823F091
:1026C00040720849FB6813434B60FB7A002B02D031
:1026D000044B00221A6400BF1437BD465DF8047B2A
:1026E000704700BF00000E4080BA8C01005A6202A1
:1026F00080B500AFFDF77AFD034600211846FFF7CD
:10270000B7FF00BF80BD80B582B000AF7860396090
:1027100039687868FFF7ACFF00BF0837BD4680BD59
:1027200080B487B000AF78600F237B617B68033390
:102730003B617B69FB60FA683B69934228BF1346A3
:10274000BB60BB681B07BB60BB6818461C37BD4637
:102750005DF8047B7047000080B400AF044B5B6AF7
:1027600003F030031846BD465DF8047B704700BF98
:1027700000400E4080B483B000AF7860064B5B6AC7
:1027800023F0300204497B6813434B6200BF0C37CF
:10279000BD465DF8047B704700400E4090B585B0A3
:1027A00000AF78600023BB607B68384A93420BD04F
:1027B000374A934208D0374A934205D040F2B531A8
:1027C0003548FFF723FE00E000BF786800F0B4FC56
:1027D0000346FB607B682D4A93420CD02C4A9342FF
:1027E00010D02C4A934214D12C4BD3F8803003F0F4
:1027F0000703FB6013E0294BD3F8843003F0070391
:10280000FB600CE0254BD3F8883003F00703FB6036
:1028100005E04FF479712048FFF7F8FD00BFFB6831
:10282000042B2ED801A252F823F000BF7D2800000F
:1028300041280000492800005928000051280000C4
:10284000FDF734FDB8601CE0FDF742FDB86018E00C
:10285000FDF735FDB86014E0FDF7A8FC04460F4B0A
:10286000D3F800311B0E03F0010301331846FFF7C4
:10287000FFFD0346B4FBF3F3BB6002E00023BB6043
:1028800000BFBB6818461437BD4690BD03001C004E
:102890000500200002001A004CB2000000400E406B
:1028A00080B483B000AF78600A4BD3F8443103F0B2
:1028B0000103002B08D100BF064BD3F840217B68F1
:1028C0001340002BF8D100E000BF0C37BD465DF887
:1028D000047B704700400E4080B483B000AF786046
:1028E0007B68294A93422FD0274A934210D8274A1F
:1028F000934221D0254A934203D8254A93421BD0C4
:102900003AE0244A934217D0234A934218D033E046
:10291000224A934224D0214A934206D8204A934225
:1029200016D0204A934217D026E01F4A93421BD06C
:102930001E4A93421CD01FE01D4BD3F8E0301CE030
:102940001B4BD3F8EC3018E0194BD3F8F83014E0F7
:10295000174BD3F8FC3010E0154BD3F800310CE0E6
:10296000134BD3F8083108E0114BD3F80C3104E0D5
:102970000F4BD3F8103100E0002318460C37BD464A
:102980005DF8047B704700BF405DC60080841E0078
:1029900040420F0000093D00C0CF6A0080BA8C01A0
:1029A0000024F400C0EA21010048E80180D5430278
:1029B000B081E00F80B400AF034B1B681846BD46E2
:1029C0005DF8047B704700BF3000002080B584B004
:1029D00000AF78607868FFF77FFFF860FB68002B36
:1029E00003D0FB68B3F1FF3F04D140F223511948F3
:1029F000FFF70CFD184A7B68136000BF19211748C8
:102A0000FFF721FD0346002BF8D17B68144A93425F
:102A10000DD0144A934211D0134A934200D012E0D1
:102A2000FB6823F0C06343F08063FB600BE0FB684E
:102A300023F0C06343F00073FB6004E0FB6823F005
:102A4000C063FB6000BF094AFB68936100BF103799
:102A5000BD4680BD4CB200003000002040410E4019
:102A600080841E0000093D0040420F0000400E40DF
:102A700080B582B000AF7860786800F051F9034605
:102A8000013318460837BD4680BD80B582B000AF1F
:102A9000786039603B68013B1946786800F0F0F9CE
:102AA00000BF0837BD4680BD80B586B000AF7860F6
:102AB0000B46FB7000233B617B681B0A03F00F038E
:102AC000013B092B32D801A252F823F0F52A00006D
:102AD000012B00002D2B00002D2B0000FB2A0000F5
:102AE000072B0000112B00002D2B00001B2B0000DA
:102AF000272B00001A4B7B611EE01A4B7B611BE009
:102B0000194B7B6118E0194B7B6101233B6113E09A
:102B1000174B7B6110233B610EE0164B7B614FF43A
:102B200080333B6108E0144B7B6105E04FF4FB61AF
:102B30001248FFF76BFC10E07B681B0B03F01F03D0
:102B4000FB603B69002B02D03869FFF7A9FEFB78D8
:102B50001A46F9687869FFF75FFC1837BD4680BDF3
:102B600000400E40B0400E40C0400E40E0400E40DD
:102B7000E8400E40F0400E4050410E404CB2000084
:102B800080B584B000AF78607B6803F47813B3F548
:102B9000602F00F0A580B3F5602F16D8B3F5802F15
:102BA00031D0B3F5802F05D8002B28D0B3F5003FE6
:102BB0003CD09EE0B3F5202F47D0B3F5402F00F076
:102BC0008B80B3F5002F2DD093E0B3F5D01F4BD001
:102BD000B3F5D01F09D8B3F5A01F4FD0B3F5B01F80
:102BE00063D0B3F5901F44D083E0B3F5001F6ED0DF
:102BF000B3F5381F78D0B3F5E01F51D079E0FDF779
:102C0000FFFAF8607DE0FDF7FBFAF8603F4BD3F880
:102C10000C311B0AC3F308030133FA68B2FBF3F368
:102C2000FB606EE0FDF7ECFAF8606AE0FDF7E8FAA9
:102C3000F860364BD3F808311B0AC3F3080301339D
:102C4000FA68B2FBF3F3FB605BE0FDF7D9FAF860DA
:102C50002E4BD3F814311B0A03F01F030133FA681B
:102C6000B2FBF3F3FB604CE02948FFF797FDF860F7
:102C700047E02848FFF792FDF86042E02448FFF75C
:102C80008DFDF860214BD3F8203103F00F03184677
:102C9000FFF7EEFB0246FB68B3FBF2F3FB6030E0AC
:102CA0001D48FFF77BFDF8602BE01B48FFF776FD22
:102CB000F860164BD3F8283103F003031846FFF7EA
:102CC000D7FB0246FB68B3FBF2F3FB6019E0114847
:102CD000FFF764FDF86014E0FFF758FCF86010E0BF
:102CE000FFF72EFCF8600CE00020FFF775FCF860A1
:102CF00007E040F6CC010948FFF788FB0023FB60A2
:102D000000BFFB6818461037BD4680BD00400E402E
:102D100002001A000500200003001C004CB2000055
:102D200080B584B000AF78607B681B0903F00F03A7
:102D3000BB60BB68013B082B00F28B8001A252F8FC
:102D400023F000BF692D0000792D0000892D0000BF
:102D5000992D0000A92D0000B92D0000ED2D0000D7
:102D6000212E0000412E0000404BD3F800311B0AF9
:102D700003F01F03FB6074E03C4BD3F814311B0AD3
:102D800003F01F03FB606CE0384BD3F800311B0EDF
:102D900003F00103FB6064E0344BD3F80C311B0AF1
:102DA000C3F30803FB605CE0304BD3F808311B0A27
:102DB000C3F30803FB6054E07B682D4A93420CD1B7
:102DC0002A4BD3F8203103F00F03FB60F868FFF7BC
:102DD0004FFB0346013BFB6007E040F631112548FD
:102DE000FFF714FB0023FB6000BF3AE07B68224A38
:102DF00093420CD11D4BD3F8283103F00303FB6041
:102E0000F868FFF735FB0346013BFB6007E040F63F
:102E100055111848FFF7FAFA0023FB6000BF20E0C5
:102E20007B68164A934202D10023FB6007E040F61C
:102E300065111048FFF7EAFA0023FB6000BF10E0BD
:102E400040F67B110B48FFF7E1FA0023FB6000BF5F
:102E500007E040F682110748FFF7D8FA0023FB602D
:102E600000BFFB6818461037BD4680BD00400E40CD
:102E7000600614004CB200007007160080091200B2
:102E800080B584B000AF786039607B681B0903F0BF
:102E90000F03FB60FB68013B082B00F2348101A2A9
:102EA00052F823F0C92E0000172F00003F2F00001A
:102EB000672F0000952F0000E92F00006B30000005
:102EC000B5300000F93000003B681F2B04D940F6F4
:102ED000A8119248FFF79AFAFFF70AFC9048FFF70B
:102EE000FDFA904BD3F8003123F4F8523B681B02F3
:102EF0008C491343C1F80031FDF758F9B86000213F
:102F0000B868FFF700FC8848FFF73AFE034618460A
:102F1000FFF7E4FAFDE03B681F2B04D940F6BA1135
:102F20007E48FFF773FA7F4BD3F8143123F4F8523D
:102F30003B681B027B491343C1F81431E9E03B684D
:102F4000012B04D940F6C4117448FFF75FFA754BA2
:102F5000D3F8003123F080723B681B06714913439C
:102F6000C1F80031D5E03B68B3F5007F04D340F6EB
:102F7000CF116A48FFF74AFA6A4BD3F80C3123F4B1
:102F8000FF3323F480733A68120266491343C1F891
:102F90000C31BEE03B68B3F5007F04D340F6D61198
:102FA0005E48FFF733FAFFF7A3FB5D48FFF796FA99
:102FB0005C4BD3F8083123F4FF3323F480733A6871
:102FC000120258491343C1F80831FDF7EFF8B86011
:102FD0000021B868FFF797FB5348FFF7D1FD034680
:102FE0001846FFF77BFA94E07B68504A934203D07F
:102FF0004F4A934217D031E03B68002B04D040F693
:10300000FB114648FFF702FA4FF48020FFF748FC17
:10301000444BD3F8303123F00F0242493B6813434D
:10302000C1F8303120E03B68B3F5004F04D940F6D9
:1030300013213A48FFF7EAF93868FFF727FA3860B2
:103040000420FFF72DFC374BD3F8203123F00F027B
:1030500034493B681343C1F8203105E040F6412173
:103060002E48FFF7D3F900BF53E07B68314A934203
:1030700019D13B68082B04D940F64A212748FFF7AD
:10308000C5F93868FFF702FA38604020FFF708FCFE
:10309000244BD3F8283123F0030222493B68134321
:1030A000C1F8283105E040F677211C48FFF7AEF95A
:1030B00000BF2EE07B681D4A934216D13B68002B6F
:1030C00004D04FF428611548FFF7A0F94FF4802091
:1030D000FFF7E6FB134BD3F8303123F00F02114911
:1030E0003B681343C1F8303105E040F68B210B48B3
:1030F000FFF78CF900BF0CE040F6A2210748FFF76C
:1031000085F900BF05E040F6A8210448FFF77EF9E5
:1031100000BF00BF1037BD4680BD00BF4CB20000ED
:103120000148E80100400E40000508008009120037
:10313000600614007007160080B584B000AF786098
:103140000123FB737B6803F00F03BB60BB68013B8B
:10315000072B00F2AD8001A252F823F07D31000070
:10316000AF310000DF310000B13200002532000035
:1031700055320000B132000075320000534BD3F8D5
:10318000943003F00703032B07D0042B02D0022B4B
:1031900006D008E00223FB7308E00323FB7305E07D
:1031A0000423FB7302E00523FB7300BF88E0474B59
:1031B000D3F8803003F00703022B06D0042B07D08E
:1031C000012B08D10323FB7308E00223FB7305E006
:1031D0000A23FB7302E00123FB7300BF70E03B4B4B
:1031E000D3F8843003F00703013B032B16D801A268
:1031F00052F823F0053200000B32000017320000B5
:10320000113200000323FB730BE00223FB7308E081
:103210000A23FB7305E00623FB7302E00123FB7323
:1032200000BF4DE0294BD3F8883003F00703022B91
:1032300006D0042B07D0012B08D10323FB7308E031
:103240000223FB7305E00A23FB7302E00123FB73F7
:1032500000BF35E01D4B1B6F03F00103002B05D0B1
:10326000012B00D02CE00923FB7302E00723FB7342
:1032700000BF25E0154BD3F85C3103F03003102B71
:103280000CD0102B02D8002B05D019E0202B08D031
:10329000302B09D014E00123FB7308E00723FB73F4
:1032A00005E00423FB7302E00823FB7300BF07E083
:1032B0004FF447610648FFF7A9F80023FB7300BFEE
:1032C000FB7B18461037BD4680BD00BF00400E4056
:1032D0004CB2000080B588B000AF78600B46FB7040
:1032E0000323FB610323FB7600233B617B6803F030
:1032F0000F03FB60FB68013B072B00F22F8101A24B
:1033000052F823F025330000D933000015340000B3
:103310005D350000F7330000B53400005D35000076
:10332000DF340000FB78023B082B35D801A252F8AD
:1033300023F000BF59330000633300006D330000F9
:103340007D33000099330000993300009933000069
:10335000993300008D3300000423FB610023FB76CA
:1033600020E00323FB610123FB761BE00223FB61CA
:103370000223FB767E48FFF7B1F813E00123FB61DF
:103380000323FB767A48FFF7A9F80BE040F61451C7
:103390007848FFF73BF8E7E040F619517548FFF72A
:1033A00035F8E1E0FB7E01220121184600F000FA29
:1033B000FFF79EF9704AFB6953677048FFF7E0FB1F
:1033C00003461846FFF78AF8FCF7F0FEB8600021C4
:1033D000B868FFF798F9C7E03B69002B01D03B695B
:1033E00000E0674B3B61FB78062B04D140F64B5164
:1033F0006048FFF70BF83B69002B01D03B6900E008
:10340000604B3B61FB78062B04D140F65D51594877
:10341000FEF7FCFF3B69002B01D03B6900E05A4BF3
:103420003B61FB78013B092B3AD801A252F823F00B
:10343000593400005F3400006F340000A1340000F4
:10344000A13400007F340000A1340000A13400004A
:10345000A13400009B34000000237B6126E00122A0
:103460000121002000F0A4F902237B611EE001226B
:103470000121012000F09CF901237B6116E0FCF79B
:1034800095FE03461846FFF729F8012200213F4820
:10349000FEF7C2FF03237B6108E004237B6105E0A4
:1034A00040F689513348FEF7B1FF5DE03B697A6928
:1034B0001A6059E0FB78072B02D0092B04D007E0F3
:1034C0002D4B00221A6709E02B4B01221A6705E0F9
:1034D00040F613612748FEF799FF45E044E0FB788A
:1034E000013B072B28D801A252F823F00D3500002C
:1034F000393500003935000023350000393500002A
:1035000039350000133500003335000000237B619E
:1035100018E001220121042000F04AF901237B6117
:1035200010E001220121022000F042F902237B6118
:1035300008E003237B6105E040F671610D48FEF76A
:1035400065FF11E00C4BD3F85C3123F030027B694E
:103550001B0109491343C1F85C3105E040F62771AE
:103560000448FEF753FF00BF2037BD4680BD00BFB3
:103570000148E8014CB2000000400E400005080080
:1035800080400E4088400E4084400E40B0400E40C7
:1035900080B483B000AF78607B68294A93422FD013
:1035A000274A934210D8274A934221D0254A934272
:1035B00003D8254A93421BD03AE0244A934217D0BD
:1035C000234A934218D033E0224A934224D0214A1E
:1035D000934206D8204A934216D0204A934217D0ED
:1035E00026E01F4A93421BD01E4A93421CD01FE084
:1035F0001D4BD3F880301CE01B4BD3F88C3018E007
:10360000194BD3F8983014E0174BD3F89C3010E0E6
:10361000154BD3F8A0300CE0134BD3F8A83008E0DA
:10362000114BD3F8AC3004E00F4BD3F8B03000E0CE
:10363000002318460C37BD465DF8047B704700BF79
:10364000405DC60080841E0040420F0000093D001E
:10365000C0CF6A0080BA8C010024F400C0EA2101C6
:103660000048E80180D54302B081E00F80B586B004
:1036700000AF78607868FFF78BFF78617B69002B7B
:1036800003D07B69B3F1FF3F04D141F2A20140486E
:10369000FEF7BCFE3F4B1B683B613E4A7B681360F4
:1036A0001120FFF749FD0346052B01D1FFF720F854
:1036B00000BF18213848FEF7C6FE0346002BF8D19C
:1036C0007B69B3F1FF3F04D141F2B0013048FEF70E
:1036D0009DFE7B68314A93420DD0314A934211D00E
:1036E000304A934200D012E07B6923F0C06343F07C
:1036F00080637B610BE07B6923F0C06343F0007360
:103700007B6104E07B6923F0C0637B6100BF112013
:10371000FFF712FD0346052B02D17868FEF7DEFEA7
:10372000214A7B6913611120FFF706FD0346052B33
:1037300023D1FCF73BFDF860FA687B689A4204D914
:1037400041F2DC011248FEF761FE124B1B68FA6879
:103750009A4204D941F2DD010D48FEF757FE0D4BA8
:103760001B687A689A4204D041F2DE010848FEF7ED
:103770004DFE0021F868FEF7C6FF0C48FFF700FA7F
:1037800003461846FEF7AAFE00BF1837BD4680BDA7
:103790004CB200000C00002040410E4080841E000E
:1037A00000093D0040420F0000400E4000050800A7
:1037B00080B588B000AF0346FB710B46BB71134662
:1037C0007B71FB79042B3CD801A252F823F000BF97
:1037D0002D3800001B380000F7370000E5370000E7
:1037E0000938000001237B6102233B610123FB6157
:1037F0000023BB612BE004237B6108233B6103238F
:10380000FB610223BB6122E010237B6120233B612B
:103810000523FB610423BB6119E040237B61802306
:103820003B610723FB610623BB6110E04FF480730B
:103830007B614FF400733B610923FB610823BB618B
:1038400005E041F2CC213748FEF7E0FD67E0BB79A7
:10385000002B59D00023FB73FB79022B0FD1FEF70D
:103860007BFF0346002B0AD10123FB732E4B5B6ABF
:1038700003F00103012B02D10120FEF77BFF2A4A4E
:103880007B69136600BFB9692848FEF7DCFD034673
:10389000002BF8D07B79002B41D000BFF969234879
:1038A000FEF7D1FD0346002BF8D0FB79022B36D171
:1038B000FB7B002B33D01C4B5B6A03F00103012B15
:1038C00005D101222021022000F072F903E000213D
:1038D000022000F015F9022000F02AF8B860012259
:1038E00000210220FFF764FFB968022000F05EF8B3
:1038F0000D4A7B69136600BFF9690C48FEF7A3FD0A
:103900000346002BF8D00AE0074A3B69136600BF64
:10391000B9690648FEF797FD0346002BF8D120371A
:10392000BD4680BD4CB2000000400E4090400E40AD
:1039300080B584B000AF0346FB71FB79013B032BDC
:1039400023D801A252F823F0593900007D39000034
:103950006539000071390000124B1B6AC3F308037C
:10396000FB601AE00F4B1B6903F07F03FB6014E060
:103970000C4B9B6903F07F03FB600EE0094BD3F80F
:103980009C30C3F30A03FB6007E041F2493106486B
:10399000FEF73CFD0023FB6000BFFB6818461037B4
:1039A000BD4680BD00400E404CB2000080B584B0E2
:1039B00000AF03463960FB71FB79013B032B00F23A
:1039C0008C8001A252F823F0D93900008D3A000012
:1039D000193A0000533A00003B68B3F5007F04D366
:1039E00041F270314248FEF711FD3B68C3F3080312
:1039F0003B6000BF1A213F48FEF725FD0346002B20
:103A0000F8D13D4B1B6A23F4FF7323F001033A49BD
:103A10003A6813430B6266E03B687F2B04D941F29E
:103A20007B313348FEF7F2FC3B6803F07F033B60D9
:103A300000BF18212F48FEF706FD0346002BF8D1E2
:103A40002D4B1B6923F07F022B493B6813430B610D
:103A500049E03B687F2B04D941F295312448FEF7B9
:103A6000D5FC3B6803F07F033B6000BF1921214870
:103A7000FEF7E9FC0346002BF8D11F4B9B6923F0AE
:103A80007F021D493B6813438B612CE01A4BD3F82E
:103A9000903003F00403002B04D041F2A33114480A
:103AA000FEF7B4FC144B5B6A23F03003124A43F078
:103AB000100353623B68DB0903F00F031846FEF75F
:103AC0002FFEF8600C4B1A6B0C4B13403A681A43EC
:103AD0000949FB6813430B6305E041F2BD3104481B
:103AE000FEF794FC00BF00BF1037BD4680BD00BF8D
:103AF0004CB2000040410E4000400E4000F8FF0F65
:103B000080B584B000AF03460A46FB711346BB7113
:103B1000FB79022B04D041F2D5312248FEF776FC26
:103B2000FEF71AFE0346002B03D14FF44003FB605F
:103B30001AE0BB79202B04D0302B0AD0002B04D004
:103B40000BE04FF40003FB600EE04FF44003FB601A
:103B50000AE04FF44003FB6006E0134BFB6041F2C8
:103B6000F0311048FEF752FC00BF104BD3F8902004
:103B7000FB681340FA689A42F7D1FB6803F48003AC
:103B8000002B0AD0094BD3F8A03003F48063002B3C
:103B900014BF01230023DBB200E0012318461037D5
:103BA000BD4680BD4CB20000FF03E10700400E405F
:103BB00080B582B000AF0346FB710B46BB71134664
:103BC0007B71FB79022B15D1BB79002B07D00F4BF2
:103BD0004FF48062C3F8A8200C4ABB7953667B7906
:103BE000002B0DD0BA79FB7911461846FFF788FFF4
:103BF000034607E041F224410548FEF707FC00E0D8
:103C000000BF012318460837BD4680BD00400E4066
:103C10004CB2000080B483B000AFEFF310833B6080
:103C20003B687B6072B67B6818460C37BD465DF812
:103C3000047B704780B483B000AF78607B68002B52
:103C400000D162B600BF0C37BD465DF8047B7047FB
:103C500080B500AFFCF7AAFA00BF80BD80B487B082
:103C600000AFF860B9607A60FB6803F10473DA00B2
:103C7000BB6813449B007B617B697A681A6000BF54
:103C80001C37BD465DF8047B704780B485B000AF3B
:103C9000786039607B6803F10473DA003B68134491
:103CA0009B00FB60FB681B6818461437BD465DF837
:103CB000047B704780B400AF044B0022C3F880211E
:103CC00000BFBD465DF8047B704700BF00400E405A
:103CD00080B400AF044B45F60E02C3F8802100BF4C
:103CE000BD465DF8047B704700400E4080B400AFD5
:103CF000034B1B6DDBB21846BD465DF8047B704775
:103D0000B081E00F80B584B000AF0346FB71FB7952
:103D1000002B0CD12D4BD3F890302D4A136011207D
:103D2000FFF70AFA03461A462A4B1A704AE0FB7953
:103D3000012B47D1254BD3F8803103F00103FB6001
:103D4000FFF7C6FF0023BB60214B1B6803F0010394
:103D5000BA681343BB601E4B1B6803F01003BA68BC
:103D60001343BB601A4B1B6803F04003BA6813434C
:103D7000BB60174B1B6803F00403BA681343BB60B6
:103D8000134B1B6803F48073BA681343BB600F4A7C
:103D9000BB6813660F4B1B78052B05D00D4B1B78AA
:103DA00019461120FFF796FA094B1B6803F001032F
:103DB000002B02D1054B02221A66FB68002B01D0B2
:103DC000FFF778FF00BF1037BD4680BD00400E40B2
:103DD0004C0300205003002080B584B000AF0346A0
:103DE000FB71FB79002B12D00E4BDB6C0E4A13607B
:103DF0000C4BDB6C23F47F43FB60FB6843F4EE4326
:103E0000FB60084AFB68D36400F022F905E0054A2C
:103E1000054B1B68D36400F01BF900BF1037BD468B
:103E200080BD00BF00300E405403002080B400AFBE
:103E30000E4B1B78012B03D00C4B1B78022B0FD1A0
:103E40000B4B1B6C03F00303012B06D100BF094B86
:103E50001B6803F48033002BF9D0044B03221A7043
:103E600000BFBD465DF8047B704700BF44030020DF
:103E700000300E407C300E4080B582B000AF03466B
:103E8000FB71FB79002B02D00020FFF73BFF0E4BAC
:103E90001B690D4A43F0040313610120FFF79CFFE7
:103EA000FFF7C4FF30BF0020FFF796FFFB79002B20
:103EB00003D00120FFF726FF01E0FFF7C9FE00BF96
:103EC0000837BD4680BD00BF00ED00E080B588B07A
:103ED00000AF2A4BFB612A4BBB612A4B7B612A4B0B
:103EE0003B612A4BFB602A4BBB602A4BD3F86C31F9
:103EF000B3F1FF3F37D0FB695B687B60FB691B68F0
:103F00003B603B687A681A60BB695B687B60BB6931
:103F10001B683B603B687A681A607B695B687B6002
:103F20007B691B683B603B687A681A603B695B6829
:103F30007B603B691B683B603B687A681A60FB6882
:103F40005B687B60FB681B683B603B687A681A6053
:103F5000BB685B687B60BB681B683B603B687A68DA
:103F60001A60012305E04FF4A8610B48FEF74EFAF2
:103F7000002318462037BD4680BD00BF3880E00FC3
:103F80004080E00F4880E00F5080E00F5880E00F45
:103F90006080E00FB081E00FB0B2000080B584B067
:103FA00000AF254BDB6E244A43F08073D3660021BB
:103FB0002248FFF76AFEF860FB68002B03D004205C
:103FC00000F0E6FC02E0002000F0E2FC1A4B1B6E61
:103FD000194A23F0C0431366174BDB6C164A43F0B3
:103FE0000603D3643B1D184601F024FA7B79012BAC
:103FF0001DD13B79022B1AD8114B1B78002B16D1FF
:10400000104B1B680F4A43F0010313600A4B1B6EF1
:10401000BB60BA680C4B1340BB60BA680B4B1343D0
:10402000BB60054ABB681366054B01221A7000BFCE
:104030001037BD4680BD00BF00300E404C300E40F2
:104040004403002044300E40000F0EF0B4C0400B7B
:1040500080B58AB000AF01237B627B6A1B053B629F
:10406000424BDB6C1B0A03F00F03FB61404B1B88C8
:1040700003F128023E4B1B882833D90F0B445B10F9
:1040800013441946FB695A1C13469B001344B1FBA9
:10409000F3F3013BBB61BB697B6107233B613A6979
:1040A0007B69934228BF1346BB61BB691B06BB619A
:1040B000BB6923F0E063002B04D040F2B3512D48DC
:1040C000FEF7A4F93B6A23F4E003002B04D040F28E
:1040D000B4512848FEF79AF9244BDB6C23F0EE62CA
:1040E000B9693B6A0B4321491343CB64224BB3F9B3
:1040F0000030002B36DB204BB3F90030FB81FB890D
:1041000003F12802FB892833D90F0B445B101344B9
:104110001946FB6901335A00FB6901335B081344FC
:10412000B1FBF3F3BB60BB687B6007233B603A687D
:104130007B68934228BF1346BB60BB681B01BB6012
:10414000BB6823F07003002B04D040F2CB51094828
:10415000FEF75CF9054B1B6D23F070020349BB6849
:1041600013430B6500BF2837BD4680BD00300E40AD
:1041700046030020B0B200004A03002080B483B0A0
:1041800000AF78600B467B807B689AB2054B1A8043
:10419000054A7B88138000BF0C37BD465DF8047B61
:1041A000704700BF460300204A03002080B582B05C
:1041B00000AF0346FB71FB79002B02D0012B04D02A
:1041C00007E0094B094A9A6509E0074B084A9A65D6
:1041D00005E040F2F7510748FEF718F900BF00BFAD
:1041E0000837BD4680BD00BF00300E4077402057E5
:1041F000372110B7B0B2000080B584B000AF0346DD
:10420000FB710B46BB7113467B71FFF76FFD0346D5
:10421000FB72FB7A032B0FD82C4BD3F87C31FB605D
:10422000FB79002B04D0FB681B0ADBB2FB602EE09D
:10423000FB68DBB2FB602AE0244BD3F88031FB60E3
:10424000BB79032B1CD801A252F823F05D42000079
:10425000654200006F42000079420000FB68DBB25B
:10426000FB6014E0FB681B0ADBB2FB600FE0FB683D
:104270001B0CDBB2FB600AE0FB681B0EFB6006E078
:1042800040F23B611248FEF7C1F800231AE07B7947
:10429000002B16D1FB681B03FB60FB6823F4704303
:1042A000002B06D040F246610948FEF7AFF8002324
:1042B00008E0084BDB6E23F470420649FB681343A9
:1042C000CB66012318461037BD4680BDB081E00F94
:1042D000B0B2000000300E4080B588B000AFF8608A
:1042E000B96011461A460B46FB711346BB71002399
:1042F000FB610023BB61BB791B02FA7913437B612D
:104300007B6940F2011293422AD0B3F5817F07D234
:10431000012B19D0012B47D3B3F5807F50D073E028
:1043200040F20122934227D040F20122934203D867
:10433000B3F5007F50D067E0B3F5407F58D040F22E
:104340000132934224D05FE0374BD3F87431FB61E4
:10435000FB691B0ADBB2BB61FB69DBB2FB6159E0A5
:10436000314BD3F87431FB61FB691B0EBB61FB69F8
:104370001B0CDBB2FB614DE02B4BD3F87831FB61BA
:10438000FB691B0ADBB2BB61FB69DBB2FB6141E08D
:10439000254BD3F87831FB61FB691B0EBB61FB69D0
:1043A0001B0CDBB2FB6135E01F4BD3F86C31FB61BA
:1043B000FB691B0ADBB2BB61FB69DBB2FB6129E075
:1043C000194BD3F86C31FB61FB691B0EBB61FB69B8
:1043D0001B0CDBB2FB611DE0134BD3F87031FB61AA
:1043E000FB691B0ADBB2BB61FB69DBB2FB6111E05D
:1043F0000D4BD3F87031FB61FB691B0EBB61FB6990
:104400001B0CDBB2FB6105E040F2B7610748FDF72A
:10441000FDFF00BFFB68FA691A60BB68BA691A60E1
:1044200000BF2037BD4680BDB081E00FB0B20000B4
:1044300080B584B000AF0346FB7100BF274B9B6F74
:1044400003F00103002BF9D1244B1B6C03F0030391
:10445000FB60FB68002B04D001220D212048FFF7F0
:10446000FDFBFB68DBB2FA799A4208D1FB79002B9D
:1044700030D100220D211A48FFF7F0FB2AE0FB683B
:10448000002B05D1FB79012B02D1164B02221A70A9
:1044900000BF124B9B6F03F00103002BF9D10F4BB0
:1044A0001B6C23F00302FB790C4913430B6400BF20
:1044B0000A4B9B6F03F00103002BF9D1FB79002B12
:1044C00014BF01230023DBB21A460D210448FFF775
:1044D000C5FB00E000BF1037BD4680BD00300E4078
:1044E00054300E404403002080B584B000AF7860A3
:1044F0005D4B02229A635C4B9B6B03F00F03022B14
:1045000006D040F245715948FDF780FF0023A7E02F
:10451000FFF7DCFC7B681B89C82B04D940F24F7184
:104520005248FDF773FF7B689A887B681B899A4223
:1045300004D94FF4EA614D48FDF768FF7B68B3F991
:104540000C30C82B04DD40F251714848FDF75EFF86
:104550007B685B78012B08D17B689B88C82B04D9CA
:1045600040F255714148FDF751FF7B68DB8842F20C
:104570001072934204D940F25F713C48FDF746FF48
:104580007B68DB884A2B02D80023FB6015E07B6840
:10459000DB88B3F5FA7F03D24FF08053FB600CE069
:1045A0007B68DB8840F6C312934203D84FF0005378
:1045B000FB6002E04FF04053FB602B4BDB6C23F0C1
:1045C000405323F001037A68B2F90C20002A01DB82
:1045D000012100E00021FA680A4323491343CB6418
:1045E000FFF7DCFC7B681B891A467B68B3F90C304B
:1045F00019461046FFF7C2FD7B689A881C4B1A804B
:104600007B689B88184600F04FF97B689B7B1846B7
:10461000FFF7CCFD7B685B8801220121184600F082
:104620002BF8034683F00103DBB2002B06D040F2E7
:1046300096710E48FDF7EAFE002311E07B689B7A35
:10464000002B14BF01230023DBB21A4605210948C1
:10465000FFF704FB7B685B781846FFF7E9FE012350
:1046600018461037BD4680BD00300E40B0B2000085
:10467000480300203C300E4080B590B000AF786019
:104680000B46FB701346BB700023FB6300237B6368
:1046900007F1200300221A605A6007F11803002274
:1046A0001A605A6007F1100300221A605A60002352
:1046B000BB817B68B3F5E16F06D37B6840F6B83207
:1046C000934201D8012300E0002387F8333097F8A4
:1046D000333003F0010387F8333097F8333083F039
:1046E0000103DBB2002B06D040F2DA716B48FDF714
:1046F0008DFE0023CEE07B68B3F5E16F8CBF012314
:10470000002387F8323097F83230002B0AD04FF46C
:10471000E163FB6340F6B8337B637A6BFB6BD31AC0
:10472000BB6309E04FF49663FB634FF4E1637B6383
:104730007A6BFB6BD31ABB6397F83230002B0BD02C
:10474000574BD3F86831FB61FB691B0E7B61FB693A
:104750001B0CDBB2FB610AE0514BD3F86831FB6103
:10476000FB691B0ADBB27B61FB69DBB2FB614D4B72
:10477000DB6C1B0FDBB203F00303DBB23B733B7B51
:1047800097F8322007F1100107F11800FFF7A4FD98
:104790007A68FB6BD31A7969FA698A1A02FB03F209
:1047A000BB6BB2FBF3F37B627A6AFB6913447B62F7
:1047B0007A68FB6BD31A3969BA698A1A02FB03F269
:1047C000BB6BB2FBF3F33B623A6ABB6913443B62D7
:1047D0007A6A7B699A420BD87A6AFB699A4207D354
:1047E0003A6A3B699A4203D83A6ABB699A4206D24E
:1047F00040F626012948FDF709FE00234AE0BB7870
:10480000002B12D0274BDB6D23F4FE4323F0020371
:104810007A6A1202134397F83220002A01D002224A
:1048200000E000221F491343CB65FB78002B30D0FA
:10483000397B97F8323000221846FFF7DDFC03463B
:1048400083F00103DBB2002B06D040F6350113489C
:10485000FDF7DCFD00231DE03B6AFB62E723BB6242
:10486000BA6AFB6A934228BF13463B620D4B5B6EEC
:1048700023F4FF7323F001033A6A5200134397F8BD
:104880003220002A01D0012200E000220549134312
:104890004B66012318464037BD4680BDB0B20000CC
:1048A000B081E00F00300E4080B584B000AF78607A
:1048B0000023FB60344B1B6F03F00703BB60324BDC
:1048C000DB6C03F00103002B14D0BB68012B11D962
:1048D0007B68132B02D80423FB603DE07B68132B1D
:1048E00005D97B68272B02D80823FB6034E010230E
:1048F000FB6031E0244BDB6C03F00103002B14D18F
:10490000BB68012B11D87B68092B02D80423FB60FC
:1049100022E07B68092B05D97B68132B02D808237A
:10492000FB6019E01023FB6016E0174BDB6C03F013
:104930000103002B0BD0BB68012B08D87B68272B09
:1049400002D80823FB6007E01023FB6004E040F678
:1049500078010E48FDF75AFDFB68013BFB60FB68E0
:104960001A02FB681B031343FB60074BDB6C23F449
:104970007F420549FB681343CB64FFF769FB00BF27
:104980001037BD4680BD00BF00300E40B0B2000001
:1049900080B584B000AF0346FB7100211148FFF7DA
:1049A00074F9F860FB68002B02D1FB79012B07D961
:1049B000FB68002B04D140F696010B48FDF726FD5D
:1049C0000A4B1B6F23F00702FB79084913430B675F
:1049D000074B1B881846FFF767FF00BF1037BD461F
:1049E00080BD00BF4C300E40B0B2000000300E4021
:1049F0004803002080B487B000AFF860B9607A60E7
:104A0000FB6803F10473DA00BB6813449B007B610D
:104A10007B697A681A6000BF1C37BD465DF8047B6D
:104A2000704780B485B000AF786039607B6803F16F
:104A3000C063FB60FB683A681A6000BF1437BD466C
:104A40005DF8047B704780B485B000AF7860396052
:104A50007B6803F18063FB60FB683A681A6000BF03
:104A60001437BD465DF8047B704780B584B000AF55
:104A7000F860B9607A60B968F868FFF7E4FF7968B0
:104A8000F868FFF7CEFF00BF1037BD4680BD0000BD
:104A900080B582B000AF03463960FB71FB79002B13
:104AA0001DD0FB79012B17D0FB79022B11D0FB799C
:104AB000032B0BD0FB79042B06D0FB79052B01D1FE
:104AC000FF230DE000230BE0002309E04FF47E43B9
:104AD00006E04FF47C6303E04FF4784300E03F23AB
:104AE0003A68134103F00103002B04D140F259311D
:104AF0000C48FDF78BFCFA7913465B0013441B014D
:104B00000C3303F1804303F5204301213A6801FA95
:104B100002F211461846FFF796FF00BF0837BD4660
:104B200080BD00BF14B3000080B582B000AF034663
:104B30003960FB71FB79002B1DD0FB79012B17D05D
:104B4000FB79022B11D0FB79032B0BD0FB79042BC3
:104B500006D0FB79052B01D1FF230DE000230BE0EC
:104B6000002309E04FF47E4306E04FF47C6303E04A
:104B70004FF4784300E03F233A68134103F0010308
:104B8000002B04D140F286310C48FDF73FFCFA7946
:104B900013465B0013441B010C3303F1804303F500
:104BA000204301213A6801FA02F211461846FFF744
:104BB00038FF00BF0837BD4680BD00BF14B30000FA
:104BC00080B586B000AFB9607A601A460346FB73C1
:104BD0001346BB7300237B61FB7B002B1DD0FB7B4B
:104BE000012B17D0FB7B022B11D0FB7B032B0BD0AF
:104BF000FB7B042B06D0FB7B052B01D1FF230DE0B3
:104C000000230BE0002309E04FF47E4306E04FF45D
:104C10007C6303E04FF4784300E03F23BA6813411C
:104C200003F00103002B03D1BF213948FDF7EEFB50
:104C30007A68BB68534023F00303002B03D0C121E3
:104C40003348FDF7E3FB7B68072B0ED87B689B009E
:104C50000F2202FA03F1FA7B7B689B0002FA03F34E
:104C60001A462C48FFF701FF10E07B68083B7B6188
:104C70007B699B000F2202FA03F1FA7B7B699B00A0
:104C800002FA03F31A462448FFF7EFFE7B68072B6E
:104C900010D87B689B00032202FA03F1BB6803F083
:104CA00003027B689B0002FA03F31A461B48FFF7D6
:104CB000DCFE0FE07B699B00032202FA03F1BB6874
:104CC00003F003027B699B0002FA03F31A461448BF
:104CD000FFF7CBFEBB7B1A4679681248FFF78AFEC6
:104CE00097F820301A4679680F48FFF783FE0122B3
:104CF0007B689A400D4BC3F8242497F824301A4659
:104D000079680B48FFF776FE00BF1837BD4680BDB7
:104D100078B3000000A4004004A4004008A40040B0
:104D20000CA4004010A4004014A4004000A00040C7
:104D300028A4004080B584B000AFB9607B60034612
:104D4000FB731346BB73FB7B002B1DD0FB7B012B3E
:104D500017D0FB7B022B11D0FB7B032B0BD0FB7BF3
:104D6000042B06D0FB7B052B01D1FF230DE0002394
:104D70000BE0002309E04FF47E4306E04FF47C6330
:104D800003E04FF4784300E03F23BA68134103F097
:104D90000103002B04D14FF485713948FDF736FB30
:104DA000BB7B002B0DD07B68002B05D0FB7BB9684B
:104DB0001846FFF7B9FE04E0FB7BB9681846FFF719
:104DC00067FEBB68072B20D82E49FA7B13465B0091
:104DD00013441B010B4404331A68BB689B000F216A
:104DE00001FA03F3DB431340B97BBA68920001FA7E
:104DF00002F211462348FA7B194313465B00134421
:104E00001B0103440433196025E01E49FA7B134655
:104E10005B0013441B010B4408331A68BB6803F1A1
:104E20008043083B9B000F2101FA03F3DB4302EAB6
:104E30000301BA7BBB6803F18043083B9B0002FA85
:104E400003F31048FA7B194313465B0013441B011C
:104E5000034408331960BB7B002B0DD17B68002B0A
:104E600005D0FB7BB9681846FFF75EFE04E0FB7BCC
:104E7000B9681846FFF70CFE00BF1037BD4680BD6D
:104E800078B3000000A0004080B483B000AF0346B8
:104E9000FB71FB7903F01F02074997F907305B09A3
:104EA000012000FA02F241F8232000BF0C37BD4672
:104EB0005DF8047B704700BF00E100E080B483B080
:104EC00000AF0346FB71FB7903F01F02074997F916
:104ED00007305B09012000FA02F2603341F8232019
:104EE00000BF0C37BD465DF8047B704700E100E071
:104EF00080B483B000AF03463960FB7197F9073087
:104F0000002B0BDA3B68DAB20C49FB7903F00F0394
:104F1000043B5201D2B20B441A7609E03B68DAB284
:104F2000074997F907305201D2B20B4483F80023A6
:104F300000BF0C37BD465DF8047B704700ED00E014
:104F400000E100E080B485B000AF786039607B6834
:104F500003F18063FB60FB683A681A6000BF143796
:104F6000BD465DF8047B704780B582B000AF7860C5
:104F70007B68002B03D188212D48FDF747FA7B6819
:104F80001B781B0623F0E063002B03D08A212848FE
:104F9000FDF73CFA7B685B781B0223F47F43002B10
:104FA00003D08C212248FDF731FA7B689B7823F0EF
:104FB000FF03002B03D08E211D48FDF727FA7B68E5
:104FC000DB78072B03D98F211948FDF71FFA012140
:104FD0001848FDF769FD7B681B781A067B685B78CB
:104FE0001B0213437A6892781A43134B1A60124BD0
:104FF00000221A62104B0022DA620F4B00225A6321
:105000000D4B4FF00042DA660B4B4FF0FF329A66C1
:105010000820FFF753FF7B68DB7819460820FFF76D
:1050200067FF0820FFF730FF00BF0837BD4680BD8F
:10503000DCB300000045080000200E4080B588B0B9
:1050400000AFF860B9607A600122FB6802FA03F3EE
:10505000BB61FB68072B03DDBC218248FDF7D6F955
:10506000BB68002B03D1BD217E48FDF7CFF9BB689B
:105070001B6823F47C1323F00F03002B03D0BE2105
:105080007848FDF7C3F9BB681B791B0223F47F4303
:10509000002B03D0C1217348FDF7B8F9BB685B79D9
:1050A0001B0223F47F43002B03D0C3216D48FDF77F
:1050B000ADF9BB689B7923F0FF03002B03D0C5211A
:1050C0006848FDF7A3F9BB68DB7923F0FF03002BE9
:1050D00003D0C7216348FDF799F9BB689B7A1B048D
:1050E00023F44033002B03D0CA215E48FDF78EF92C
:1050F000BB68DB7A1B0523F48013002B03D0CC2183
:105100005848FDF783F9BB681B7B5B0523F400134C
:10511000002B03D0CE215348FDF778F9BB685B7BA9
:1051200023F0FF03002B03D0D0214E48FDF76EF98A
:105130004D48BB681968FA6813465B0013441B01AD
:10514000034480331960BB685B7B47491846FA68A3
:1051500013465B0013441B010B4488331860BB6883
:105160009B7A1A04BB68DB7A1B051A43BB681B7B5E
:105170005B0513433C491846FA6813465B00134429
:105180001B010B44843318607B68374823F003010C
:10519000FA6813465B0013441B01034498331960FB
:1051A000314ABB699366FEF735FD78612E4BDA6EA6
:1051B0002D49BB691343CB66BB681B7A002B05D016
:1051C000294B5A6B2849BB6913434B63BB685B7A15
:1051D000002B05D0244BDA6A2349BB691343CB6209
:1051E000214B1B68FB61BB681B79002B08D0BB6897
:1051F0001B79DB431B0263F47F43FA691340FB61B5
:10520000BB685B79002B06D0BB685B791B021A4632
:10521000FB691343FB61BB689B79002B07D0BB681C
:105220009B79DB4363F0FF03FA691340FB61BB68C2
:10523000DB79002B05D0BB68DB791A46FB69134389
:10524000FB61094AFB691360B9690848FFF77AFEF8
:10525000054ABB69D3637869FEF7ECFC00BF2037D1
:10526000BD4680BDDCB3000000200E4028200E406B
:1052700080B584B000AFF860B9607A603B60FB68CD
:105280000B2B03D94F210A48FDF7C0F8BB6803F484
:10529000FE427B6803F007031A4306493B681A4342
:1052A000FB68103341F8232000BF1037BD4680BD96
:1052B00040B4000000600E4080B584B000AFF860DC
:1052C000B9607A60FB680B2B03D977210A48FDF798
:1052D0009DF8BB6803F4FE427B6803F007031343A9
:1052E000064943F08042FB68103341F8232000BF99
:1052F0001037BD4680BD00BF40B4000000600E40C6
:1053000080B487B000AFF860B9607A60FB6803F1E1
:105310000473DA00BB6813449B007B617B697A6885
:105320001A6000BF1C37BD465DF8047B7047000063
:1053300080B582B000AF786039607B68022B03DDF6
:1053400053211848FDF762F83B685B791F2B03D99E
:1053500056211448FDF75AF83B681B781A463B68FB
:105360005B789B001A433B689B789B011A433B6820
:10537000DB781B011A433B681B79DB021A433B684D
:105380005B791B031A433B689B795B0406491A430C
:105390007B6804331B010B441A6000BF0837BD460D
:1053A00080BD00BFA4B400000020044080B582B0DE
:1053B00000AF0346FB71FB791A4600210348FFF753
:1053C0009FFF00BF0837BD4680BD00BF00200440DE
:1053D00080B483B000AF78607B681B781A467B6826
:1053E0005B789B001A437B689B781B011A437B68A0
:1053F000DB785B011A437B681B791B021A437B68CD
:105400005B791B031A437B689B79DB031A437B6838
:10541000DB791B041A437B681B7A5B040449134342
:105420000B6000BF0C37BD465DF8047B704700BFC2
:105430000020044080B584B000AF78607B68002B0A
:1054400003D13E211A48FCF7E1FF1A4B5B69DBB23E
:105450009B00DBB203F03C03FB73164B1B699B09FB
:1054600003F00303DAB2FB7B1343FB737B68FA7B25
:105470009A70104B1B69DBB203F03F03DAB27B6812
:105480005A700C4B9B691B09DBB21B01FB73094B68
:10549000DB691B0903F00F03DAB2FB7B1343FB73D9
:1054A0007B68FA7B1A7000BF1037BD4680BD00BF15
:1054B00008B50000D0FF0FE080B586B000AFF860FF
:1054C000B9607A607B68002B04D140F2E311124886
:1054D000FCF79CFFBB68002B03D11048FDF750FB85
:1054E000B860BB685A1E7B685B00B2FBF3F37B615C
:1054F0007B691B027B617A69094B1340002B04D046
:105500004FF4FA710448FCF781FFFB687A695A612D
:1055100000BF1837BD4680BD70B500004041050092
:10552000070080FF80B582B000AF786039607B688B
:10553000384A934208D07B68374A934204D040F2FD
:1055400077213648FCF762FF786800F069F87B68DD
:105550001A683B681B8A43F001039BB219463B68FB
:105560009B7B002B02D04FF4806300E000230B43B1
:105570001A437B681A607B681B683A68127D002AB0
:1055800002D04FF0005200E000221A437B681A60FC
:105590003B689B7C002B07D03B68DB7C63F07F0380
:1055A000DBB21A467B689A653B681B7B43F48052EA
:1055B0007B685A603B6859683B689B681A46786804
:1055C000FFF77AFF3B685B7B002B02D07B681022E1
:1055D000DA603B689B7D1B0703F0E0423B68DB7DA4
:1055E0001B0503F4E0031A437B681A663B685B7D86
:1055F000002B05D07B681B6843F480327B681A60FF
:105600003B681B781A467B68DA6000BF0837BD46E6
:1056100080BD00BF000001400004014070B50000E3
:1056200080B582B000AF78607B68204A934208D092
:105630007B681F4A934204D040F247311D48FCF773
:10564000E5FE7B6840F6AA62DA607B6800221A6099
:105650007B6841F205025A607B6800229A607B6891
:1056600000225A617B680022DA647B68124A9A64DD
:105670007B6800225A677B6800229A677B68002259
:10568000DA677B68094A934202D17B6800221A6577
:105690007B6800229A657B68054A934202D17B6849
:1056A0000022DA6500BF0837BD4680BD000001401A
:1056B0000004014070B50000F9FF010080B483B020
:1056C00000AF78600B46FB7000BF7B681B6903F07E
:1056D0004003002BF9D0FA787B685A6300BF0C377F
:1056E000BD465DF8047B704780B483B000AF78603E
:1056F0000B467B8000BF7B681B6903F04003002BD7
:10570000F9D07A887B68DA6300BF0C37BD465DF854
:10571000047B704780B483B000AF0346FB71FB7914
:1057200003F01F02074997F907305B09012000FACF
:1057300002F241F8232000BF0C37BD465DF8047B20
:10574000704700BF00E100E080B483B000AF0346C3
:10575000FB71FB7903F01F02074997F907305B09DA
:10576000012000FA02F2203341F8232000BF0C3759
:10577000BD465DF8047B704700E100E080B483B073
:1057800000AF0346FB71FB7903F01F02074997F94D
:1057900007305B09012000FA02F2603341F8232050
:1057A00000BF0C37BD465DF8047B704700E100E0A8
:1057B00080B483B000AF78607B689B6C18460C3770
:1057C000BD465DF8047B704780B483B000AF78605D
:1057D00039607B685A6C3B681A437B685A6400BF27
:1057E0000C37BD465DF8047B704780B483B000AFD2
:1057F00078600B46FB70FA787B689A6000BF0C37C4
:10580000BD465DF8047B704780B400AF044BDB6C91
:105810001B0EDBB21846BD465DF8047B704700BF27
:10582000B081E00F80B487B000AFF860B9607A60F3
:10583000FB6803F10473DA00BB6813449B007B61CF
:105840007B697A681A6000BF1C37BD465DF8047B2F
:10585000704780B485B000AF786039607B6803F131
:10586000C063FB60FB683A681A6000BF1437BD462E
:105870005DF8047B704780B485B000AF7860396014
:105880007B6803F18063FB60FB683A681A6000BFC5
:105890001437BD465DF8047B704780B584B000AF17
:1058A000F860B9607A60B968F868FFF7E4FF796872
:1058B000F868FFF7CEFF00BF1037BD4680BD00007F
:1058C00080B586B000AF4FF050133B610023FB6002
:1058D000FFF79AFF0346FB723B461846FFF7AAFD07
:1058E000FB7A8E2B22D81D4BD3F8B0307B601B4A3D
:1058F0007B6843F00403C2F8B03000237B610EE004
:1059000017483A69FB6842EA03017A6913465B006B
:1059100013441B01034419607B6901337B617B697C
:10592000052BEDD90D4A7B68C2F8B030FB7A8F2B7E
:1059300007D80A4BDB6A23F07F03084A43F02003B1
:10594000D3627B78012B05D1064B1B68054A43F0D7
:105950000403136000BF1837BD4680BD00400E40F1
:1059600000A0004064310E4080B582B000AF786086
:105970007868FDF77BFE00BF0837BD4680BD80B567
:1059800082B000AF78607868FDF720F800BF083774
:10599000BD4680BD80B400AF054B1B69044A23F0AF
:1059A0000403136130BF00BFBD465DF8047B704740
:1059B00000ED00E080B582B000AF786039607B68B0
:1059C000022B04DD4FF4A5710748FCF71FFD074AC1
:1059D0007B6804331B01134404333A681A6000BF28
:1059E0000837BD4680BD00BFD8B500000020044088
:1059F00080B400AF114B114AD3F81C34C2F82434E0
:105A00000F4B1B78DBB283F00103DBB2002B0FD00E
:105A10000B4B01221A700B4B1B78DBB20133DBB24C
:105A2000084A194611700E2B02D1064B00221A703B
:105A300000BFBD465DF8047B704700BF00A000407A
:105A4000380600200806002080B400AF064B064A46
:105A5000D3F81C34C2F82434044B01221A7000BF5E
:105A6000BD465DF8047B704700A00040F0050020B3
:105A700080B500AF2B4B5B6C03F00103002B1DD0F6
:105A8000284B9B6B03F00103002B17D02548FFF731
:105A90008FFE0246244B1A602248FFF789FE024619
:105AA000214B5A601F48FFF783FE02461E4B9A6047
:105AB0001C48FFF77DFE02461B4BDA60194B5B6CFE
:105AC00003F00203002B15D0164B9B6B03F002036F
:105AD000002B0FD0134B9B6E134A1360114B9B6E20
